{
  "contractName": "TokenMaster",
  "abi": [
    {
      "inputs": [
        {
          "internalType": "string",
          "name": "_name",
          "type": "string"
        },
        {
          "internalType": "string",
          "name": "_symbol",
          "type": "string"
        }
      ],
      "stateMutability": "nonpayable",
      "type": "constructor"
    },
    {
      "anonymous": false,
      "inputs": [
        {
          "indexed": true,
          "internalType": "address",
          "name": "owner",
          "type": "address"
        },
        {
          "indexed": true,
          "internalType": "address",
          "name": "approved",
          "type": "address"
        },
        {
          "indexed": true,
          "internalType": "uint256",
          "name": "tokenId",
          "type": "uint256"
        }
      ],
      "name": "Approval",
      "type": "event"
    },
    {
      "anonymous": false,
      "inputs": [
        {
          "indexed": true,
          "internalType": "address",
          "name": "owner",
          "type": "address"
        },
        {
          "indexed": true,
          "internalType": "address",
          "name": "operator",
          "type": "address"
        },
        {
          "indexed": false,
          "internalType": "bool",
          "name": "approved",
          "type": "bool"
        }
      ],
      "name": "ApprovalForAll",
      "type": "event"
    },
    {
      "anonymous": false,
      "inputs": [
        {
          "indexed": false,
          "internalType": "uint256",
          "name": "occasionId",
          "type": "uint256"
        },
        {
          "indexed": false,
          "internalType": "uint256",
          "name": "seatNumber",
          "type": "uint256"
        },
        {
          "indexed": false,
          "internalType": "address",
          "name": "buyer",
          "type": "address"
        }
      ],
      "name": "LogSeatTaken",
      "type": "event"
    },
    {
      "anonymous": false,
      "inputs": [
        {
          "indexed": false,
          "internalType": "uint256",
          "name": "occasionId",
          "type": "uint256"
        },
        {
          "indexed": false,
          "internalType": "uint256",
          "name": "seatNumber",
          "type": "uint256"
        },
        {
          "indexed": false,
          "internalType": "uint256",
          "name": "ticketCost",
          "type": "uint256"
        },
        {
          "indexed": false,
          "internalType": "address",
          "name": "buyer",
          "type": "address"
        }
      ],
      "name": "TicketPurchased",
      "type": "event"
    },
    {
      "anonymous": false,
      "inputs": [
        {
          "indexed": false,
          "internalType": "uint256",
          "name": "occasionId",
          "type": "uint256"
        },
        {
          "indexed": false,
          "internalType": "uint256",
          "name": "seatNumber",
          "type": "uint256"
        },
        {
          "indexed": false,
          "internalType": "uint256",
          "name": "refundAmount",
          "type": "uint256"
        },
        {
          "indexed": false,
          "internalType": "address",
          "name": "buyer",
          "type": "address"
        }
      ],
      "name": "TicketRefunded",
      "type": "event"
    },
    {
      "anonymous": false,
      "inputs": [
        {
          "indexed": true,
          "internalType": "address",
          "name": "sender",
          "type": "address"
        },
        {
          "indexed": false,
          "internalType": "uint256",
          "name": "amount",
          "type": "uint256"
        }
      ],
      "name": "TransactionSent",
      "type": "event"
    },
    {
      "anonymous": false,
      "inputs": [
        {
          "indexed": true,
          "internalType": "address",
          "name": "from",
          "type": "address"
        },
        {
          "indexed": true,
          "internalType": "address",
          "name": "to",
          "type": "address"
        },
        {
          "indexed": true,
          "internalType": "uint256",
          "name": "tokenId",
          "type": "uint256"
        }
      ],
      "name": "Transfer",
      "type": "event"
    },
    {
      "inputs": [
        {
          "internalType": "address",
          "name": "to",
          "type": "address"
        },
        {
          "internalType": "uint256",
          "name": "tokenId",
          "type": "uint256"
        }
      ],
      "name": "approve",
      "outputs": [],
      "stateMutability": "nonpayable",
      "type": "function"
    },
    {
      "inputs": [
        {
          "internalType": "address",
          "name": "owner",
          "type": "address"
        }
      ],
      "name": "balanceOf",
      "outputs": [
        {
          "internalType": "uint256",
          "name": "",
          "type": "uint256"
        }
      ],
      "stateMutability": "view",
      "type": "function",
      "constant": true
    },
    {
      "inputs": [
        {
          "internalType": "uint256",
          "name": "tokenId",
          "type": "uint256"
        }
      ],
      "name": "getApproved",
      "outputs": [
        {
          "internalType": "address",
          "name": "",
          "type": "address"
        }
      ],
      "stateMutability": "view",
      "type": "function",
      "constant": true
    },
    {
      "inputs": [
        {
          "internalType": "uint256",
          "name": "",
          "type": "uint256"
        },
        {
          "internalType": "address",
          "name": "",
          "type": "address"
        }
      ],
      "name": "hasBought",
      "outputs": [
        {
          "internalType": "bool",
          "name": "",
          "type": "bool"
        }
      ],
      "stateMutability": "view",
      "type": "function",
      "constant": true
    },
    {
      "inputs": [
        {
          "internalType": "address",
          "name": "owner",
          "type": "address"
        },
        {
          "internalType": "address",
          "name": "operator",
          "type": "address"
        }
      ],
      "name": "isApprovedForAll",
      "outputs": [
        {
          "internalType": "bool",
          "name": "",
          "type": "bool"
        }
      ],
      "stateMutability": "view",
      "type": "function",
      "constant": true
    },
    {
      "inputs": [],
      "name": "name",
      "outputs": [
        {
          "internalType": "string",
          "name": "",
          "type": "string"
        }
      ],
      "stateMutability": "view",
      "type": "function",
      "constant": true
    },
    {
      "inputs": [],
      "name": "owner",
      "outputs": [
        {
          "internalType": "address",
          "name": "",
          "type": "address"
        }
      ],
      "stateMutability": "view",
      "type": "function",
      "constant": true
    },
    {
      "inputs": [
        {
          "internalType": "uint256",
          "name": "tokenId",
          "type": "uint256"
        }
      ],
      "name": "ownerOf",
      "outputs": [
        {
          "internalType": "address",
          "name": "",
          "type": "address"
        }
      ],
      "stateMutability": "view",
      "type": "function",
      "constant": true
    },
    {
      "inputs": [
        {
          "internalType": "address",
          "name": "from",
          "type": "address"
        },
        {
          "internalType": "address",
          "name": "to",
          "type": "address"
        },
        {
          "internalType": "uint256",
          "name": "tokenId",
          "type": "uint256"
        }
      ],
      "name": "safeTransferFrom",
      "outputs": [],
      "stateMutability": "nonpayable",
      "type": "function"
    },
    {
      "inputs": [
        {
          "internalType": "address",
          "name": "from",
          "type": "address"
        },
        {
          "internalType": "address",
          "name": "to",
          "type": "address"
        },
        {
          "internalType": "uint256",
          "name": "tokenId",
          "type": "uint256"
        },
        {
          "internalType": "bytes",
          "name": "data",
          "type": "bytes"
        }
      ],
      "name": "safeTransferFrom",
      "outputs": [],
      "stateMutability": "nonpayable",
      "type": "function"
    },
    {
      "inputs": [
        {
          "internalType": "uint256",
          "name": "",
          "type": "uint256"
        },
        {
          "internalType": "uint256",
          "name": "",
          "type": "uint256"
        }
      ],
      "name": "seatTaken",
      "outputs": [
        {
          "internalType": "address",
          "name": "",
          "type": "address"
        }
      ],
      "stateMutability": "view",
      "type": "function",
      "constant": true
    },
    {
      "inputs": [
        {
          "internalType": "address",
          "name": "operator",
          "type": "address"
        },
        {
          "internalType": "bool",
          "name": "approved",
          "type": "bool"
        }
      ],
      "name": "setApprovalForAll",
      "outputs": [],
      "stateMutability": "nonpayable",
      "type": "function"
    },
    {
      "inputs": [
        {
          "internalType": "bytes4",
          "name": "interfaceId",
          "type": "bytes4"
        }
      ],
      "name": "supportsInterface",
      "outputs": [
        {
          "internalType": "bool",
          "name": "",
          "type": "bool"
        }
      ],
      "stateMutability": "view",
      "type": "function",
      "constant": true
    },
    {
      "inputs": [],
      "name": "symbol",
      "outputs": [
        {
          "internalType": "string",
          "name": "",
          "type": "string"
        }
      ],
      "stateMutability": "view",
      "type": "function",
      "constant": true
    },
    {
      "inputs": [
        {
          "internalType": "address",
          "name": "",
          "type": "address"
        }
      ],
      "name": "ticketsPurchased",
      "outputs": [
        {
          "internalType": "uint256",
          "name": "",
          "type": "uint256"
        }
      ],
      "stateMutability": "view",
      "type": "function",
      "constant": true
    },
    {
      "inputs": [
        {
          "internalType": "uint256",
          "name": "tokenId",
          "type": "uint256"
        }
      ],
      "name": "tokenURI",
      "outputs": [
        {
          "internalType": "string",
          "name": "",
          "type": "string"
        }
      ],
      "stateMutability": "view",
      "type": "function",
      "constant": true
    },
    {
      "inputs": [],
      "name": "totalOccasions",
      "outputs": [
        {
          "internalType": "uint256",
          "name": "",
          "type": "uint256"
        }
      ],
      "stateMutability": "view",
      "type": "function",
      "constant": true
    },
    {
      "inputs": [],
      "name": "totalSupply",
      "outputs": [
        {
          "internalType": "uint256",
          "name": "",
          "type": "uint256"
        }
      ],
      "stateMutability": "view",
      "type": "function",
      "constant": true
    },
    {
      "inputs": [
        {
          "internalType": "address",
          "name": "from",
          "type": "address"
        },
        {
          "internalType": "address",
          "name": "to",
          "type": "address"
        },
        {
          "internalType": "uint256",
          "name": "tokenId",
          "type": "uint256"
        }
      ],
      "name": "transferFrom",
      "outputs": [],
      "stateMutability": "nonpayable",
      "type": "function"
    },
    {
      "inputs": [
        {
          "internalType": "string",
          "name": "_name",
          "type": "string"
        },
        {
          "internalType": "uint256",
          "name": "_cost",
          "type": "uint256"
        },
        {
          "internalType": "uint256",
          "name": "_maxTickets",
          "type": "uint256"
        },
        {
          "internalType": "string",
          "name": "_date",
          "type": "string"
        },
        {
          "internalType": "string",
          "name": "_time",
          "type": "string"
        },
        {
          "internalType": "string",
          "name": "_location",
          "type": "string"
        }
      ],
      "name": "list",
      "outputs": [],
      "stateMutability": "nonpayable",
      "type": "function"
    },
    {
      "inputs": [
        {
          "internalType": "uint256",
          "name": "_id",
          "type": "uint256"
        },
        {
          "internalType": "uint256",
          "name": "_seat",
          "type": "uint256"
        }
      ],
      "name": "bookTicket",
      "outputs": [],
      "stateMutability": "payable",
      "type": "function",
      "payable": true
    },
    {
      "inputs": [
        {
          "internalType": "uint256",
          "name": "_occasionId",
          "type": "uint256"
        },
        {
          "internalType": "uint256",
          "name": "_seatNumber",
          "type": "uint256"
        }
      ],
      "name": "refundTicket",
      "outputs": [],
      "stateMutability": "nonpayable",
      "type": "function"
    },
    {
      "inputs": [
        {
          "internalType": "uint256",
          "name": "_occasionId",
          "type": "uint256"
        },
        {
          "internalType": "uint256",
          "name": "_seatNumber",
          "type": "uint256"
        }
      ],
      "name": "getSeatInfo",
      "outputs": [
        {
          "internalType": "uint256",
          "name": "cost",
          "type": "uint256"
        },
        {
          "internalType": "address",
          "name": "buyer",
          "type": "address"
        }
      ],
      "stateMutability": "view",
      "type": "function",
      "constant": true
    },
    {
      "inputs": [
        {
          "internalType": "uint256",
          "name": "_id",
          "type": "uint256"
        }
      ],
      "name": "getOccasion",
      "outputs": [
        {
          "components": [
            {
              "internalType": "uint256",
              "name": "id",
              "type": "uint256"
            },
            {
              "internalType": "string",
              "name": "name",
              "type": "string"
            },
            {
              "internalType": "uint256",
              "name": "cost",
              "type": "uint256"
            },
            {
              "internalType": "uint256",
              "name": "tickets",
              "type": "uint256"
            },
            {
              "internalType": "uint256",
              "name": "maxTickets",
              "type": "uint256"
            },
            {
              "internalType": "string",
              "name": "date",
              "type": "string"
            },
            {
              "internalType": "string",
              "name": "time",
              "type": "string"
            },
            {
              "internalType": "string",
              "name": "location",
              "type": "string"
            },
            {
              "internalType": "uint256",
              "name": "seatsBooked",
              "type": "uint256"
            },
            {
              "internalType": "address[]",
              "name": "ownershipHistory",
              "type": "address[]"
            }
          ],
          "internalType": "struct TokenMaster.Occasion",
          "name": "",
          "type": "tuple"
        }
      ],
      "stateMutability": "view",
      "type": "function",
      "constant": true
    },
    {
      "inputs": [
        {
          "internalType": "uint256",
          "name": "_id",
          "type": "uint256"
        }
      ],
      "name": "getSeatsTaken",
      "outputs": [
        {
          "internalType": "uint256[]",
          "name": "",
          "type": "uint256[]"
        }
      ],
      "stateMutability": "view",
      "type": "function",
      "constant": true
    },
    {
      "inputs": [
        {
          "internalType": "string",
          "name": "_name",
          "type": "string"
        }
      ],
      "name": "getOccasionIdByName",
      "outputs": [
        {
          "internalType": "uint256",
          "name": "",
          "type": "uint256"
        }
      ],
      "stateMutability": "view",
      "type": "function",
      "constant": true
    },
    {
      "inputs": [],
      "name": "sendTransaction",
      "outputs": [],
      "stateMutability": "payable",
      "type": "function",
      "payable": true
    },
    {
      "inputs": [],
      "name": "withdraw",
      "outputs": [],
      "stateMutability": "nonpayable",
      "type": "function"
    },
    {
      "inputs": [],
      "name": "sayHello",
      "outputs": [
        {
          "internalType": "string",
          "name": "",
          "type": "string"
        }
      ],
      "stateMutability": "pure",
      "type": "function",
      "constant": true
    }
  ],
  "bytecode": "0x60806040523480156200001157600080fd5b5060405162004dcd38038062004dcd833981810160405281019062000037919062000303565b8181816000908051906020019062000051929190620000b6565b5080600190805190602001906200006a929190620000b6565b50505033600660006101000a81548173ffffffffffffffffffffffffffffffffffffffff021916908373ffffffffffffffffffffffffffffffffffffffff1602179055505050620003ed565b828054620000c490620003b7565b90600052602060002090601f016020900481019282620000e8576000855562000134565b82601f106200010357805160ff191683800117855562000134565b8280016001018555821562000134579182015b828111156200013357825182559160200191906001019062000116565b5b50905062000143919062000147565b5090565b5b808211156200016257600081600090555060010162000148565b5090565b6000604051905090565b600080fd5b600080fd5b600080fd5b600080fd5b6000601f19601f8301169050919050565b7f4e487b7100000000000000000000000000000000000000000000000000000000600052604160045260246000fd5b620001cf8262000184565b810181811067ffffffffffffffff82111715620001f157620001f062000195565b5b80604052505050565b60006200020662000166565b9050620002148282620001c4565b919050565b600067ffffffffffffffff82111562000237576200023662000195565b5b620002428262000184565b9050602081019050919050565b60005b838110156200026f57808201518184015260208101905062000252565b838111156200027f576000848401525b50505050565b60006200029c620002968462000219565b620001fa565b905082815260208101848484011115620002bb57620002ba6200017f565b5b620002c88482856200024f565b509392505050565b600082601f830112620002e857620002e76200017a565b5b8151620002fa84826020860162000285565b91505092915050565b600080604083850312156200031d576200031c62000170565b5b600083015167ffffffffffffffff8111156200033e576200033d62000175565b5b6200034c85828601620002d0565b925050602083015167ffffffffffffffff81111562000370576200036f62000175565b5b6200037e85828601620002d0565b9150509250929050565b7f4e487b7100000000000000000000000000000000000000000000000000000000600052602260045260246000fd5b60006002820490506001821680620003d057607f821691505b60208210811415620003e757620003e662000388565b5b50919050565b6149d080620003fd6000396000f3fe6080604052600436106101c25760003560e01c806374bc8656116100f75780639cb04aef11610095578063b88d4fde11610064578063b88d4fde14610671578063c87b56dd1461069a578063e985e9c5146106d7578063ef5fb05b14610714576101c2565b80639cb04aef146105c4578063a22cb46514610601578063a47a2e061461062a578063af296da114610634576101c2565b806390321b3b116100d157806390321b3b14610507578063953865c11461054557806395d89b41146105705780639a382f0f1461059b576101c2565b806374bc86561461048357806386ec3700146104c05780638da5cb5b146104dc576101c2565b806323b872dd116101645780636352211e1161013e5780636352211e146103a35780636af9affd146103e05780636ccda0a61461040957806370a0823114610446576101c2565b806323b872dd1461033a5780633ccfd60b1461036357806342842e0e1461037a576101c2565b8063081812fc116101a0578063081812fc1461026c578063095ea7b3146102a95780630ef7ec74146102d257806318160ddd1461030f576101c2565b806301ffc9a7146101c7578063032244c21461020457806306fdde0314610241575b600080fd5b3480156101d357600080fd5b506101ee60048036038101906101e991906130f9565b61073f565b6040516101fb9190613141565b60405180910390f35b34801561021057600080fd5b5061022b600480360381019061022691906132a2565b610821565b6040516102389190613304565b60405180910390f35b34801561024d57600080fd5b50610256610849565b60405161026391906133a7565b60405180910390f35b34801561027857600080fd5b50610293600480360381019061028e91906133f5565b6108db565b6040516102a09190613463565b60405180910390f35b3480156102b557600080fd5b506102d060048036038101906102cb91906134aa565b610921565b005b3480156102de57600080fd5b506102f960048036038101906102f491906133f5565b610a39565b60405161030691906135a8565b60405180910390f35b34801561031b57600080fd5b50610324610aa4565b6040516103319190613304565b60405180910390f35b34801561034657600080fd5b50610361600480360381019061035c91906135ca565b610aaa565b005b34801561036f57600080fd5b50610378610b0a565b005b34801561038657600080fd5b506103a1600480360381019061039c91906135ca565b610c35565b005b3480156103af57600080fd5b506103ca60048036038101906103c591906133f5565b610c55565b6040516103d79190613463565b60405180910390f35b3480156103ec57600080fd5b506104076004803603810190610402919061361d565b610cdc565b005b34801561041557600080fd5b50610430600480360381019061042b919061365d565b61118f565b60405161043d9190613304565b60405180910390f35b34801561045257600080fd5b5061046d6004803603810190610468919061365d565b6111a7565b60405161047a9190613304565b60405180910390f35b34801561048f57600080fd5b506104aa60048036038101906104a591906133f5565b61125f565b6040516104b79190613888565b60405180910390f35b6104da60048036038101906104d5919061361d565b611595565b005b3480156104e857600080fd5b506104f1611a5e565b6040516104fe9190613463565b60405180910390f35b34801561051357600080fd5b5061052e6004803603810190610529919061361d565b611a84565b60405161053c9291906138aa565b60405180910390f35b34801561055157600080fd5b5061055a611c03565b6040516105679190613304565b60405180910390f35b34801561057c57600080fd5b50610585611c09565b60405161059291906133a7565b60405180910390f35b3480156105a757600080fd5b506105c260048036038101906105bd91906138d3565b611c9b565b005b3480156105d057600080fd5b506105eb60048036038101906105e691906139d0565b611eba565b6040516105f89190613141565b60405180910390f35b34801561060d57600080fd5b5061062860048036038101906106239190613a3c565b611ee9565b005b610632611eff565b005b34801561064057600080fd5b5061065b6004803603810190610656919061361d565b611f92565b6040516106689190613463565b60405180910390f35b34801561067d57600080fd5b5061069860048036038101906106939190613b1d565b611fd4565b005b3480156106a657600080fd5b506106c160048036038101906106bc91906133f5565b612036565b6040516106ce91906133a7565b60405180910390f35b3480156106e357600080fd5b506106fe60048036038101906106f99190613ba0565b61209e565b60405161070b9190613141565b60405180910390f35b34801561072057600080fd5b50610729612132565b60405161073691906133a7565b60405180910390f35b60007f80ac58cd000000000000000000000000000000000000000000000000000000007bffffffffffffffffffffffffffffffffffffffffffffffffffffffff1916827bffffffffffffffffffffffffffffffffffffffffffffffffffffffff1916148061080a57507f5b5e139f000000000000000000000000000000000000000000000000000000007bffffffffffffffffffffffffffffffffffffffffffffffffffffffff1916827bffffffffffffffffffffffffffffffffffffffffffffffffffffffff1916145b8061081a57506108198261216f565b5b9050919050565b6000600e826040516108339190613c1c565b9081526020016040518091039020549050919050565b60606000805461085890613c62565b80601f016020809104026020016040519081016040528092919081815260200182805461088490613c62565b80156108d15780601f106108a6576101008083540402835291602001916108d1565b820191906000526020600020905b8154815290600101906020018083116108b457829003601f168201915b5050505050905090565b60006108e6826121d9565b6004600083815260200190815260200160002060009054906101000a900473ffffffffffffffffffffffffffffffffffffffff169050919050565b600061092c82610c55565b90508073ffffffffffffffffffffffffffffffffffffffff168373ffffffffffffffffffffffffffffffffffffffff16141561099d576040517f08c379a000000000000000000000000000000000000000000000000000000000815260040161099490613d06565b60405180910390fd5b8073ffffffffffffffffffffffffffffffffffffffff166109bc612224565b73ffffffffffffffffffffffffffffffffffffffff1614806109eb57506109ea816109e5612224565b61209e565b5b610a2a576040517f08c379a0000000000000000000000000000000000000000000000000000000008152600401610a2190613d98565b60405180910390fd5b610a34838361222c565b505050565b6060600c6000838152602001908152602001600020805480602002602001604051908101604052809291908181526020018280548015610a9857602002820191906000526020600020905b815481526020019060010190808311610a84575b50505050509050919050565b60085481565b610abb610ab5612224565b826122e5565b610afa576040517f08c379a0000000000000000000000000000000000000000000000000000000008152600401610af190613e2a565b60405180910390fd5b610b0583838361237a565b505050565b600660009054906101000a900473ffffffffffffffffffffffffffffffffffffffff1673ffffffffffffffffffffffffffffffffffffffff163373ffffffffffffffffffffffffffffffffffffffff1614610b9a576040517f08c379a0000000000000000000000000000000000000000000000000000000008152600401610b9190613e96565b60405180910390fd5b6000600660009054906101000a900473ffffffffffffffffffffffffffffffffffffffff1673ffffffffffffffffffffffffffffffffffffffff1647604051610be290613ee7565b60006040518083038185875af1925050503d8060008114610c1f576040519150601f19603f3d011682016040523d82523d6000602084013e610c24565b606091505b5050905080610c3257600080fd5b50565b610c5083838360405180602001604052806000815250611fd4565b505050565b600080610c6183612674565b9050600073ffffffffffffffffffffffffffffffffffffffff168173ffffffffffffffffffffffffffffffffffffffff161415610cd3576040517f08c379a0000000000000000000000000000000000000000000000000000000008152600401610cca90613f48565b60405180910390fd5b80915050919050565b600660009054906101000a900473ffffffffffffffffffffffffffffffffffffffff1673ffffffffffffffffffffffffffffffffffffffff163373ffffffffffffffffffffffffffffffffffffffff1614610d6c576040517f08c379a0000000000000000000000000000000000000000000000000000000008152600401610d6390613e96565b60405180910390fd5b6000600960008481526020019081526020016000209050600081600001541415610dcb576040517f08c379a0000000000000000000000000000000000000000000000000000000008152600401610dc290613fb4565b60405180910390fd5b600082118015610ddf575080600401548211155b610e1e576040517f08c379a0000000000000000000000000000000000000000000000000000000008152600401610e1590614020565b60405180910390fd5b6000600b600083600001548152602001908152602001600020600084815260200190815260200160002060009054906101000a900473ffffffffffffffffffffffffffffffffffffffff169050600073ffffffffffffffffffffffffffffffffffffffff168173ffffffffffffffffffffffffffffffffffffffff161415610edb576040517f08c379a0000000000000000000000000000000000000000000000000000000008152600401610ed29061408c565b60405180910390fd5b600a60008360000154815260200190815260200160002060008273ffffffffffffffffffffffffffffffffffffffff1673ffffffffffffffffffffffffffffffffffffffff16815260200190815260200160002060009054906101000a900460ff16610f7c576040517f08c379a0000000000000000000000000000000000000000000000000000000008152600401610f73906140f8565b60405180910390fd5b60008260020154905060008273ffffffffffffffffffffffffffffffffffffffff1682604051610fab90613ee7565b60006040518083038185875af1925050503d8060008114610fe8576040519150601f19603f3d011682016040523d82523d6000602084013e610fed565b606091505b5050905080611031576040517f08c379a000000000000000000000000000000000000000000000000000000000815260040161102890614164565b60405180910390fd5b611049600185600301546126b190919063ffffffff16565b8460030181905550611069600185600801546126b190919063ffffffff16565b84600801819055506000600b600086600001548152602001908152602001600020600087815260200190815260200160002060006101000a81548173ffffffffffffffffffffffffffffffffffffffff021916908373ffffffffffffffffffffffffffffffffffffffff1602179055506000600a60008660000154815260200190815260200160002060008573ffffffffffffffffffffffffffffffffffffffff1673ffffffffffffffffffffffffffffffffffffffff16815260200190815260200160002060006101000a81548160ff0219169083151502179055507f87ff245f55dca5f20f12247f39f781d5710eda96984e49512daad7b675e41479846000015486848660405161117f9493929190614184565b60405180910390a1505050505050565b600d6020528060005260406000206000915090505481565b60008073ffffffffffffffffffffffffffffffffffffffff168273ffffffffffffffffffffffffffffffffffffffff161415611218576040517f08c379a000000000000000000000000000000000000000000000000000000000815260040161120f9061423b565b60405180910390fd5b600360008373ffffffffffffffffffffffffffffffffffffffff1673ffffffffffffffffffffffffffffffffffffffff168152602001908152602001600020549050919050565b611267612f0d565b6009600083815260200190815260200160002060405180610140016040529081600082015481526020016001820180546112a090613c62565b80601f01602080910402602001604051908101604052809291908181526020018280546112cc90613c62565b80156113195780601f106112ee57610100808354040283529160200191611319565b820191906000526020600020905b8154815290600101906020018083116112fc57829003601f168201915b5050505050815260200160028201548152602001600382015481526020016004820154815260200160058201805461135090613c62565b80601f016020809104026020016040519081016040528092919081815260200182805461137c90613c62565b80156113c95780601f1061139e576101008083540402835291602001916113c9565b820191906000526020600020905b8154815290600101906020018083116113ac57829003601f168201915b505050505081526020016006820180546113e290613c62565b80601f016020809104026020016040519081016040528092919081815260200182805461140e90613c62565b801561145b5780601f106114305761010080835404028352916020019161145b565b820191906000526020600020905b81548152906001019060200180831161143e57829003601f168201915b5050505050815260200160078201805461147490613c62565b80601f01602080910402602001604051908101604052809291908181526020018280546114a090613c62565b80156114ed5780601f106114c2576101008083540402835291602001916114ed565b820191906000526020600020905b8154815290600101906020018083116114d057829003601f168201915b50505050508152602001600882015481526020016009820180548060200260200160405190810160405280929190818152602001828054801561158557602002820191906000526020600020905b8160009054906101000a900473ffffffffffffffffffffffffffffffffffffffff1673ffffffffffffffffffffffffffffffffffffffff168152602001906001019080831161153b575b5050505050815250509050919050565b60006009600084815260200190815260200160002090506000816000015414156115f4576040517f08c379a00000000000000000000000000000000000000000000000000000000081526004016115eb90613fb4565b60405180910390fd5b600082118015611608575080600401548211155b611647576040517f08c379a000000000000000000000000000000000000000000000000000000000815260040161163e90614020565b60405180910390fd5b600073ffffffffffffffffffffffffffffffffffffffff16600b600083600001548152602001908152602001600020600084815260200190815260200160002060009054906101000a900473ffffffffffffffffffffffffffffffffffffffff1673ffffffffffffffffffffffffffffffffffffffff16146116fe576040517f08c379a00000000000000000000000000000000000000000000000000000000081526004016116f5906142cd565b60405180910390fd5b8060040154816008015410611748576040517f08c379a000000000000000000000000000000000000000000000000000000000815260040161173f90614339565b60405180910390fd5b60008160020154905080341015611794576040517f08c379a000000000000000000000000000000000000000000000000000000000815260040161178b906143a5565b60405180910390fd5b6117ac600183600301546126c790919063ffffffff16565b82600301819055506117cc600183600801546126c790919063ffffffff16565b826008018190555033600b600084600001548152602001908152602001600020600085815260200190815260200160002060006101000a81548173ffffffffffffffffffffffffffffffffffffffff021916908373ffffffffffffffffffffffffffffffffffffffff1602179055506001600a60008460000154815260200190815260200160002060003373ffffffffffffffffffffffffffffffffffffffff1673ffffffffffffffffffffffffffffffffffffffff16815260200190815260200160002060006101000a81548160ff021916908315150217905550600c600083600001548152602001908152602001600020839080600181540180825580915050600190039060005260206000200160009091909190915055600660009054906101000a900473ffffffffffffffffffffffffffffffffffffffff1673ffffffffffffffffffffffffffffffffffffffff166108fc829081150290604051600060405180830381858888f1935050505015801561194e573d6000803e3d6000fd5b5060086000815480929190611962906143f4565b9190505550611973336008546126dd565b81600901339080600181540180825580915050600190039060005260206000200160009091909190916101000a81548173ffffffffffffffffffffffffffffffffffffffff021916908373ffffffffffffffffffffffffffffffffffffffff1602179055507fa10bc58cea23ff081ed09c4a4b3d07aefa83053c0992b0fef315a4a79a6c32ea82600001548433604051611a0f9392919061443d565b60405180910390a17ff4810f4af7d42912f869f8efa162c4287b2dbce7d45c8777141a2c01d68bc0af8260000154848333604051611a509493929190614184565b60405180910390a150505050565b600660009054906101000a900473ffffffffffffffffffffffffffffffffffffffff1681565b6000806000600960008681526020019081526020016000209050600081600001541415611ae6576040517f08c379a0000000000000000000000000000000000000000000000000000000008152600401611add90613fb4565b60405180910390fd5b600084118015611afa575080600401548411155b611b39576040517f08c379a0000000000000000000000000000000000000000000000000000000008152600401611b3090614020565b60405180910390fd5b80600201549250600b600082600001548152602001908152602001600020600085815260200190815260200160002060009054906101000a900473ffffffffffffffffffffffffffffffffffffffff169150600073ffffffffffffffffffffffffffffffffffffffff168273ffffffffffffffffffffffffffffffffffffffff161415611bfb576040517f08c379a0000000000000000000000000000000000000000000000000000000008152600401611bf29061408c565b60405180910390fd5b509250929050565b60075481565b606060018054611c1890613c62565b80601f0160208091040260200160405190810160405280929190818152602001828054611c4490613c62565b8015611c915780601f10611c6657610100808354040283529160200191611c91565b820191906000526020600020905b815481529060010190602001808311611c7457829003601f168201915b5050505050905090565b600660009054906101000a900473ffffffffffffffffffffffffffffffffffffffff1673ffffffffffffffffffffffffffffffffffffffff163373ffffffffffffffffffffffffffffffffffffffff1614611d2b576040517f08c379a0000000000000000000000000000000000000000000000000000000008152600401611d2290613e96565b60405180910390fd5b60076000815480929190611d3e906143f4565b9190505550604051806101400160405280600754815260200187815260200186815260200185815260200185815260200184815260200183815260200182815260200160008152602001600067ffffffffffffffff811115611da357611da2613177565b5b604051908082528060200260200182016040528015611dd15781602001602082028036833780820191505090505b50815250600960006007548152602001908152602001600020600082015181600001556020820151816001019080519060200190611e10929190612f60565b5060408201518160020155606082015181600301556080820151816004015560a0820151816005019080519060200190611e4b929190612f60565b5060c0820151816006019080519060200190611e68929190612f60565b5060e0820151816007019080519060200190611e85929190612f60565b506101008201518160080155610120820151816009019080519060200190611eae929190612fe6565b50905050505050505050565b600a6020528160005260406000206020528060005260406000206000915091509054906101000a900460ff1681565b611efb611ef4612224565b83836128fb565b5050565b60003411611f42576040517f08c379a0000000000000000000000000000000000000000000000000000000008152600401611f39906144c0565b60405180910390fd5b3373ffffffffffffffffffffffffffffffffffffffff167f4970bf8595442008a41b189fc026906b953e2a419e3029e6d0d6ce02a33ba85d34604051611f889190613304565b60405180910390a2565b600b6020528160005260406000206020528060005260406000206000915091509054906101000a900473ffffffffffffffffffffffffffffffffffffffff1681565b611fe5611fdf612224565b836122e5565b612024576040517f08c379a000000000000000000000000000000000000000000000000000000000815260040161201b90613e2a565b60405180910390fd5b61203084848484612a68565b50505050565b6060612041826121d9565b600061204b612ac4565b9050600081511161206b5760405180602001604052806000815250612096565b8061207584612adb565b6040516020016120869291906144e0565b6040516020818303038152906040525b915050919050565b6000600560008473ffffffffffffffffffffffffffffffffffffffff1673ffffffffffffffffffffffffffffffffffffffff16815260200190815260200160002060008373ffffffffffffffffffffffffffffffffffffffff1673ffffffffffffffffffffffffffffffffffffffff16815260200190815260200160002060009054906101000a900460ff16905092915050565b60606040518060400160405280600d81526020017f48656c6c6f20776f726c64212100000000000000000000000000000000000000815250905090565b60007f01ffc9a7000000000000000000000000000000000000000000000000000000007bffffffffffffffffffffffffffffffffffffffffffffffffffffffff1916827bffffffffffffffffffffffffffffffffffffffffffffffffffffffff1916149050919050565b6121e281612bb3565b612221576040517f08c379a000000000000000000000000000000000000000000000000000000000815260040161221890613f48565b60405180910390fd5b50565b600033905090565b816004600083815260200190815260200160002060006101000a81548173ffffffffffffffffffffffffffffffffffffffff021916908373ffffffffffffffffffffffffffffffffffffffff160217905550808273ffffffffffffffffffffffffffffffffffffffff1661229f83610c55565b73ffffffffffffffffffffffffffffffffffffffff167f8c5be1e5ebec7d5bd14f71427d1e84f3dd0314c0f7b2291e5b200ac8c7c3b92560405160405180910390a45050565b6000806122f183610c55565b90508073ffffffffffffffffffffffffffffffffffffffff168473ffffffffffffffffffffffffffffffffffffffff1614806123335750612332818561209e565b5b8061237157508373ffffffffffffffffffffffffffffffffffffffff16612359846108db565b73ffffffffffffffffffffffffffffffffffffffff16145b91505092915050565b8273ffffffffffffffffffffffffffffffffffffffff1661239a82610c55565b73ffffffffffffffffffffffffffffffffffffffff16146123f0576040517f08c379a00000000000000000000000000000000000000000000000000000000081526004016123e790614576565b60405180910390fd5b600073ffffffffffffffffffffffffffffffffffffffff168273ffffffffffffffffffffffffffffffffffffffff161415612460576040517f08c379a000000000000000000000000000000000000000000000000000000000815260040161245790614608565b60405180910390fd5b61246d8383836001612bf4565b8273ffffffffffffffffffffffffffffffffffffffff1661248d82610c55565b73ffffffffffffffffffffffffffffffffffffffff16146124e3576040517f08c379a00000000000000000000000000000000000000000000000000000000081526004016124da90614576565b60405180910390fd5b6004600082815260200190815260200160002060006101000a81549073ffffffffffffffffffffffffffffffffffffffff02191690556001600360008573ffffffffffffffffffffffffffffffffffffffff1673ffffffffffffffffffffffffffffffffffffffff168152602001908152602001600020600082825403925050819055506001600360008473ffffffffffffffffffffffffffffffffffffffff1673ffffffffffffffffffffffffffffffffffffffff16815260200190815260200160002060008282540192505081905550816002600083815260200190815260200160002060006101000a81548173ffffffffffffffffffffffffffffffffffffffff021916908373ffffffffffffffffffffffffffffffffffffffff160217905550808273ffffffffffffffffffffffffffffffffffffffff168473ffffffffffffffffffffffffffffffffffffffff167fddf252ad1be2c89b69c2b068fc378daa952ba7f163c4a11628f55a4df523b3ef60405160405180910390a461266f8383836001612bfa565b505050565b60006002600083815260200190815260200160002060009054906101000a900473ffffffffffffffffffffffffffffffffffffffff169050919050565b600081836126bf9190614628565b905092915050565b600081836126d5919061465c565b905092915050565b600073ffffffffffffffffffffffffffffffffffffffff168273ffffffffffffffffffffffffffffffffffffffff16141561274d576040517f08c379a0000000000000000000000000000000000000000000000000000000008152600401612744906146fe565b60405180910390fd5b61275681612bb3565b15612796576040517f08c379a000000000000000000000000000000000000000000000000000000000815260040161278d9061476a565b60405180910390fd5b6127a4600083836001612bf4565b6127ad81612bb3565b156127ed576040517f08c379a00000000000000000000000000000000000000000000000000000000081526004016127e49061476a565b60405180910390fd5b6001600360008473ffffffffffffffffffffffffffffffffffffffff1673ffffffffffffffffffffffffffffffffffffffff16815260200190815260200160002060008282540192505081905550816002600083815260200190815260200160002060006101000a81548173ffffffffffffffffffffffffffffffffffffffff021916908373ffffffffffffffffffffffffffffffffffffffff160217905550808273ffffffffffffffffffffffffffffffffffffffff16600073ffffffffffffffffffffffffffffffffffffffff167fddf252ad1be2c89b69c2b068fc378daa952ba7f163c4a11628f55a4df523b3ef60405160405180910390a46128f7600083836001612bfa565b5050565b8173ffffffffffffffffffffffffffffffffffffffff168373ffffffffffffffffffffffffffffffffffffffff16141561296a576040517f08c379a0000000000000000000000000000000000000000000000000000000008152600401612961906147d6565b60405180910390fd5b80600560008573ffffffffffffffffffffffffffffffffffffffff1673ffffffffffffffffffffffffffffffffffffffff16815260200190815260200160002060008473ffffffffffffffffffffffffffffffffffffffff1673ffffffffffffffffffffffffffffffffffffffff16815260200190815260200160002060006101000a81548160ff0219169083151502179055508173ffffffffffffffffffffffffffffffffffffffff168373ffffffffffffffffffffffffffffffffffffffff167f17307eab39ab6107e8899845ad3d59bd9653f200f220920489ca2b5937696c3183604051612a5b9190613141565b60405180910390a3505050565b612a7384848461237a565b612a7f84848484612c00565b612abe576040517f08c379a0000000000000000000000000000000000000000000000000000000008152600401612ab590614868565b60405180910390fd5b50505050565b606060405180602001604052806000815250905090565b606060006001612aea84612d97565b01905060008167ffffffffffffffff811115612b0957612b08613177565b5b6040519080825280601f01601f191660200182016040528015612b3b5781602001600182028036833780820191505090505b509050600082602001820190505b600115612ba8578080600190039150507f3031323334353637383961626364656600000000000000000000000000000000600a86061a8153600a8581612b9257612b91614888565b5b0494506000851415612ba357612ba8565b612b49565b819350505050919050565b60008073ffffffffffffffffffffffffffffffffffffffff16612bd583612674565b73ffffffffffffffffffffffffffffffffffffffff1614159050919050565b50505050565b50505050565b6000612c218473ffffffffffffffffffffffffffffffffffffffff16612eea565b15612d8a578373ffffffffffffffffffffffffffffffffffffffff1663150b7a02612c4a612224565b8786866040518563ffffffff1660e01b8152600401612c6c949392919061490c565b602060405180830381600087803b158015612c8657600080fd5b505af1925050508015612cb757506040513d601f19601f82011682018060405250810190612cb4919061496d565b60015b612d3a573d8060008114612ce7576040519150601f19603f3d011682016040523d82523d6000602084013e612cec565b606091505b50600081511415612d32576040517f08c379a0000000000000000000000000000000000000000000000000000000008152600401612d2990614868565b60405180910390fd5b805181602001fd5b63150b7a0260e01b7bffffffffffffffffffffffffffffffffffffffffffffffffffffffff1916817bffffffffffffffffffffffffffffffffffffffffffffffffffffffff191614915050612d8f565b600190505b949350505050565b600080600090507a184f03e93ff9f4daa797ed6e38ed64bf6a1f0100000000000000008310612df5577a184f03e93ff9f4daa797ed6e38ed64bf6a1f0100000000000000008381612deb57612dea614888565b5b0492506040810190505b6d04ee2d6d415b85acef81000000008310612e32576d04ee2d6d415b85acef81000000008381612e2857612e27614888565b5b0492506020810190505b662386f26fc100008310612e6157662386f26fc100008381612e5757612e56614888565b5b0492506010810190505b6305f5e1008310612e8a576305f5e1008381612e8057612e7f614888565b5b0492506008810190505b6127108310612eaf576127108381612ea557612ea4614888565b5b0492506004810190505b60648310612ed25760648381612ec857612ec7614888565b5b0492506002810190505b600a8310612ee1576001810190505b80915050919050565b6000808273ffffffffffffffffffffffffffffffffffffffff163b119050919050565b604051806101400160405280600081526020016060815260200160008152602001600081526020016000815260200160608152602001606081526020016060815260200160008152602001606081525090565b828054612f6c90613c62565b90600052602060002090601f016020900481019282612f8e5760008555612fd5565b82601f10612fa757805160ff1916838001178555612fd5565b82800160010185558215612fd5579182015b82811115612fd4578251825591602001919060010190612fb9565b5b509050612fe29190613070565b5090565b82805482825590600052602060002090810192821561305f579160200282015b8281111561305e5782518260006101000a81548173ffffffffffffffffffffffffffffffffffffffff021916908373ffffffffffffffffffffffffffffffffffffffff16021790555091602001919060010190613006565b5b50905061306c9190613070565b5090565b5b80821115613089576000816000905550600101613071565b5090565b6000604051905090565b600080fd5b600080fd5b60007fffffffff0000000000000000000000000000000000000000000000000000000082169050919050565b6130d6816130a1565b81146130e157600080fd5b50565b6000813590506130f3816130cd565b92915050565b60006020828403121561310f5761310e613097565b5b600061311d848285016130e4565b91505092915050565b60008115159050919050565b61313b81613126565b82525050565b60006020820190506131566000830184613132565b92915050565b600080fd5b600080fd5b6000601f19601f8301169050919050565b7f4e487b7100000000000000000000000000000000000000000000000000000000600052604160045260246000fd5b6131af82613166565b810181811067ffffffffffffffff821117156131ce576131cd613177565b5b80604052505050565b60006131e161308d565b90506131ed82826131a6565b919050565b600067ffffffffffffffff82111561320d5761320c613177565b5b61321682613166565b9050602081019050919050565b82818337600083830152505050565b6000613245613240846131f2565b6131d7565b90508281526020810184848401111561326157613260613161565b5b61326c848285613223565b509392505050565b600082601f8301126132895761328861315c565b5b8135613299848260208601613232565b91505092915050565b6000602082840312156132b8576132b7613097565b5b600082013567ffffffffffffffff8111156132d6576132d561309c565b5b6132e284828501613274565b91505092915050565b6000819050919050565b6132fe816132eb565b82525050565b600060208201905061331960008301846132f5565b92915050565b600081519050919050565b600082825260208201905092915050565b60005b8381101561335957808201518184015260208101905061333e565b83811115613368576000848401525b50505050565b60006133798261331f565b613383818561332a565b935061339381856020860161333b565b61339c81613166565b840191505092915050565b600060208201905081810360008301526133c1818461336e565b905092915050565b6133d2816132eb565b81146133dd57600080fd5b50565b6000813590506133ef816133c9565b92915050565b60006020828403121561340b5761340a613097565b5b6000613419848285016133e0565b91505092915050565b600073ffffffffffffffffffffffffffffffffffffffff82169050919050565b600061344d82613422565b9050919050565b61345d81613442565b82525050565b60006020820190506134786000830184613454565b92915050565b61348781613442565b811461349257600080fd5b50565b6000813590506134a48161347e565b92915050565b600080604083850312156134c1576134c0613097565b5b60006134cf85828601613495565b92505060206134e0858286016133e0565b9150509250929050565b600081519050919050565b600082825260208201905092915050565b6000819050602082019050919050565b61351f816132eb565b82525050565b60006135318383613516565b60208301905092915050565b6000602082019050919050565b6000613555826134ea565b61355f81856134f5565b935061356a83613506565b8060005b8381101561359b5781516135828882613525565b975061358d8361353d565b92505060018101905061356e565b5085935050505092915050565b600060208201905081810360008301526135c2818461354a565b905092915050565b6000806000606084860312156135e3576135e2613097565b5b60006135f186828701613495565b935050602061360286828701613495565b9250506040613613868287016133e0565b9150509250925092565b6000806040838503121561363457613633613097565b5b6000613642858286016133e0565b9250506020613653858286016133e0565b9150509250929050565b60006020828403121561367357613672613097565b5b600061368184828501613495565b91505092915050565b600082825260208201905092915050565b60006136a68261331f565b6136b0818561368a565b93506136c081856020860161333b565b6136c981613166565b840191505092915050565b600081519050919050565b600082825260208201905092915050565b6000819050602082019050919050565b61370981613442565b82525050565b600061371b8383613700565b60208301905092915050565b6000602082019050919050565b600061373f826136d4565b61374981856136df565b9350613754836136f0565b8060005b8381101561378557815161376c888261370f565b975061377783613727565b925050600181019050613758565b5085935050505092915050565b6000610140830160008301516137ab6000860182613516565b50602083015184820360208601526137c3828261369b565b91505060408301516137d86040860182613516565b5060608301516137eb6060860182613516565b5060808301516137fe6080860182613516565b5060a083015184820360a0860152613816828261369b565b91505060c083015184820360c0860152613830828261369b565b91505060e083015184820360e086015261384a828261369b565b915050610100830151613861610100860182613516565b5061012083015184820361012086015261387b8282613734565b9150508091505092915050565b600060208201905081810360008301526138a28184613792565b905092915050565b60006040820190506138bf60008301856132f5565b6138cc6020830184613454565b9392505050565b60008060008060008060c087890312156138f0576138ef613097565b5b600087013567ffffffffffffffff81111561390e5761390d61309c565b5b61391a89828a01613274565b965050602061392b89828a016133e0565b955050604061393c89828a016133e0565b945050606087013567ffffffffffffffff81111561395d5761395c61309c565b5b61396989828a01613274565b935050608087013567ffffffffffffffff81111561398a5761398961309c565b5b61399689828a01613274565b92505060a087013567ffffffffffffffff8111156139b7576139b661309c565b5b6139c389828a01613274565b9150509295509295509295565b600080604083850312156139e7576139e6613097565b5b60006139f5858286016133e0565b9250506020613a0685828601613495565b9150509250929050565b613a1981613126565b8114613a2457600080fd5b50565b600081359050613a3681613a10565b92915050565b60008060408385031215613a5357613a52613097565b5b6000613a6185828601613495565b9250506020613a7285828601613a27565b9150509250929050565b600067ffffffffffffffff821115613a9757613a96613177565b5b613aa082613166565b9050602081019050919050565b6000613ac0613abb84613a7c565b6131d7565b905082815260208101848484011115613adc57613adb613161565b5b613ae7848285613223565b509392505050565b600082601f830112613b0457613b0361315c565b5b8135613b14848260208601613aad565b91505092915050565b60008060008060808587031215613b3757613b36613097565b5b6000613b4587828801613495565b9450506020613b5687828801613495565b9350506040613b67878288016133e0565b925050606085013567ffffffffffffffff811115613b8857613b8761309c565b5b613b9487828801613aef565b91505092959194509250565b60008060408385031215613bb757613bb6613097565b5b6000613bc585828601613495565b9250506020613bd685828601613495565b9150509250929050565b600081905092915050565b6000613bf68261331f565b613c008185613be0565b9350613c1081856020860161333b565b80840191505092915050565b6000613c288284613beb565b915081905092915050565b7f4e487b7100000000000000000000000000000000000000000000000000000000600052602260045260246000fd5b60006002820490506001821680613c7a57607f821691505b60208210811415613c8e57613c8d613c33565b5b50919050565b7f4552433732313a20617070726f76616c20746f2063757272656e74206f776e6560008201527f7200000000000000000000000000000000000000000000000000000000000000602082015250565b6000613cf060218361332a565b9150613cfb82613c94565b604082019050919050565b60006020820190508181036000830152613d1f81613ce3565b9050919050565b7f4552433732313a20617070726f76652063616c6c6572206973206e6f7420746f60008201527f6b656e206f776e6572206f7220617070726f76656420666f7220616c6c000000602082015250565b6000613d82603d8361332a565b9150613d8d82613d26565b604082019050919050565b60006020820190508181036000830152613db181613d75565b9050919050565b7f4552433732313a2063616c6c6572206973206e6f7420746f6b656e206f776e6560008201527f72206f7220617070726f76656400000000000000000000000000000000000000602082015250565b6000613e14602d8361332a565b9150613e1f82613db8565b604082019050919050565b60006020820190508181036000830152613e4381613e07565b9050919050565b7f4e6f7420746865206f776e657200000000000000000000000000000000000000600082015250565b6000613e80600d8361332a565b9150613e8b82613e4a565b602082019050919050565b60006020820190508181036000830152613eaf81613e73565b9050919050565b600081905092915050565b50565b6000613ed1600083613eb6565b9150613edc82613ec1565b600082019050919050565b6000613ef282613ec4565b9150819050919050565b7f4552433732313a20696e76616c696420746f6b656e2049440000000000000000600082015250565b6000613f3260188361332a565b9150613f3d82613efc565b602082019050919050565b60006020820190508181036000830152613f6181613f25565b9050919050565b7f496e76616c6964206f63636173696f6e20494400000000000000000000000000600082015250565b6000613f9e60138361332a565b9150613fa982613f68565b602082019050919050565b60006020820190508181036000830152613fcd81613f91565b9050919050565b7f496e76616c69642073656174206e756d62657200000000000000000000000000600082015250565b600061400a60138361332a565b915061401582613fd4565b602082019050919050565b6000602082019050818103600083015261403981613ffd565b9050919050565b7f53656174206973206e6f742074616b656e000000000000000000000000000000600082015250565b600061407660118361332a565b915061408182614040565b602082019050919050565b600060208201905081810360008301526140a581614069565b9050919050565b7f427579657220686173206e6f7420626f756768742061207469636b6574000000600082015250565b60006140e2601d8361332a565b91506140ed826140ac565b602082019050919050565b60006020820190508181036000830152614111816140d5565b9050919050565b7f526566756e64206661696c656400000000000000000000000000000000000000600082015250565b600061414e600d8361332a565b915061415982614118565b602082019050919050565b6000602082019050818103600083015261417d81614141565b9050919050565b600060808201905061419960008301876132f5565b6141a660208301866132f5565b6141b360408301856132f5565b6141c06060830184613454565b95945050505050565b7f4552433732313a2061646472657373207a65726f206973206e6f74206120766160008201527f6c6964206f776e65720000000000000000000000000000000000000000000000602082015250565b600061422560298361332a565b9150614230826141c9565b604082019050919050565b6000602082019050818103600083015261425481614218565b9050919050565b7f5365617420697320616c72656164792074616b656e206174207468697320616460008201527f6472657373000000000000000000000000000000000000000000000000000000602082015250565b60006142b760258361332a565b91506142c28261425b565b604082019050919050565b600060208201905081810360008301526142e6816142aa565b9050919050565b7f416c6c2073656174732061726520626f6f6b6564000000000000000000000000600082015250565b600061432360148361332a565b915061432e826142ed565b602082019050919050565b6000602082019050818103600083015261435281614316565b9050919050565b7f496e73756666696369656e742066756e64730000000000000000000000000000600082015250565b600061438f60128361332a565b915061439a82614359565b602082019050919050565b600060208201905081810360008301526143be81614382565b9050919050565b7f4e487b7100000000000000000000000000000000000000000000000000000000600052601160045260246000fd5b60006143ff826132eb565b91507fffffffffffffffffffffffffffffffffffffffffffffffffffffffffffffffff821415614432576144316143c5565b5b600182019050919050565b600060608201905061445260008301866132f5565b61445f60208301856132f5565b61446c6040830184613454565b949350505050565b7f416d6f756e74206d7573742062652067726561746572207468616e2030000000600082015250565b60006144aa601d8361332a565b91506144b582614474565b602082019050919050565b600060208201905081810360008301526144d98161449d565b9050919050565b60006144ec8285613beb565b91506144f88284613beb565b91508190509392505050565b7f4552433732313a207472616e736665722066726f6d20696e636f72726563742060008201527f6f776e6572000000000000000000000000000000000000000000000000000000602082015250565b600061456060258361332a565b915061456b82614504565b604082019050919050565b6000602082019050818103600083015261458f81614553565b9050919050565b7f4552433732313a207472616e7366657220746f20746865207a65726f2061646460008201527f7265737300000000000000000000000000000000000000000000000000000000602082015250565b60006145f260248361332a565b91506145fd82614596565b604082019050919050565b60006020820190508181036000830152614621816145e5565b9050919050565b6000614633826132eb565b915061463e836132eb565b925082821015614651576146506143c5565b5b828203905092915050565b6000614667826132eb565b9150614672836132eb565b9250827fffffffffffffffffffffffffffffffffffffffffffffffffffffffffffffffff038211156146a7576146a66143c5565b5b828201905092915050565b7f4552433732313a206d696e7420746f20746865207a65726f2061646472657373600082015250565b60006146e860208361332a565b91506146f3826146b2565b602082019050919050565b60006020820190508181036000830152614717816146db565b9050919050565b7f4552433732313a20746f6b656e20616c7265616479206d696e74656400000000600082015250565b6000614754601c8361332a565b915061475f8261471e565b602082019050919050565b6000602082019050818103600083015261478381614747565b9050919050565b7f4552433732313a20617070726f766520746f2063616c6c657200000000000000600082015250565b60006147c060198361332a565b91506147cb8261478a565b602082019050919050565b600060208201905081810360008301526147ef816147b3565b9050919050565b7f4552433732313a207472616e7366657220746f206e6f6e20455243373231526560008201527f63656976657220696d706c656d656e7465720000000000000000000000000000602082015250565b600061485260328361332a565b915061485d826147f6565b604082019050919050565b6000602082019050818103600083015261488181614845565b9050919050565b7f4e487b7100000000000000000000000000000000000000000000000000000000600052601260045260246000fd5b600081519050919050565b600082825260208201905092915050565b60006148de826148b7565b6148e881856148c2565b93506148f881856020860161333b565b61490181613166565b840191505092915050565b60006080820190506149216000830187613454565b61492e6020830186613454565b61493b60408301856132f5565b818103606083015261494d81846148d3565b905095945050505050565b600081519050614967816130cd565b92915050565b60006020828403121561498357614982613097565b5b600061499184828501614958565b9150509291505056fea26469706673582212200b64ea2ca14e6022445145f91ea76fd59ccbef033c6467db8160dc9a9bbc7a4664736f6c63430008090033",
  "immutableReferences": {},
  "source": "// SPDX-License-Identifier: UNLICENSED\npragma solidity ^0.8.9;\n\nimport \"@openzeppelin/contracts/token/ERC721/ERC721.sol\";\nimport \"@openzeppelin/contracts/utils/math/SafeMath.sol\";\n\ncontract TokenMaster is ERC721 {\n    address public owner;\n    uint256 public totalOccasions;\n    uint256 public totalSupply;\n    using SafeMath for uint256;\n\n    struct Occasion {\n        uint256 id;\n        string name;\n        uint256 cost;\n        uint256 tickets;\n        uint256 maxTickets;\n        string date;\n        string time;\n        string location;\n        uint256 seatsBooked;\n        address[] ownershipHistory;\n    }\n\n    mapping(uint256 => Occasion) occasions;\n    mapping(uint256 => mapping(address => bool)) public hasBought;\n    mapping(uint256 => mapping(uint256 => address)) public seatTaken;\n    mapping(uint256 => uint256[]) seatsTaken;\n    mapping(address => uint) public ticketsPurchased;\n    mapping(string => uint256) occasionIdsByName;\n\n    event TransactionSent(address indexed sender, uint256 amount);\n    event LogSeatTaken(uint256 occasionId, uint256 seatNumber, address buyer);\n\n    event TicketPurchased(\n        uint256 occasionId,\n        uint256 seatNumber,\n        uint256 ticketCost,\n        address buyer\n    );\n    event TicketRefunded(\n        uint256 occasionId,\n        uint256 seatNumber,\n        uint256 refundAmount,\n        address buyer\n    );\n\n    modifier onlyOwner() {\n        require(msg.sender == owner, \"Not the owner\");\n        _;\n    }\n\n    constructor(\n        string memory _name,\n        string memory _symbol\n    ) ERC721(_name, _symbol) {\n        owner = msg.sender;\n    }\n\n    function list(\n        string memory _name,\n        uint256 _cost,\n        uint256 _maxTickets,\n        string memory _date,\n        string memory _time,\n        string memory _location\n    ) public onlyOwner {\n        totalOccasions++;\n        occasions[totalOccasions] = Occasion(\n            totalOccasions,\n            _name,\n            _cost,\n            _maxTickets,\n            _maxTickets,\n            _date,\n            _time,\n            _location,\n            0,\n            new address[](0)\n        );\n    }\n\n    function bookTicket(uint256 _id, uint256 _seat) public payable {\n        Occasion storage occasion = occasions[_id];\n        require(occasion.id != 0, \"Invalid occasion ID\");\n        require(\n            _seat > 0 && _seat <= occasion.maxTickets,\n            \"Invalid seat number\"\n        );\n        require(\n            seatTaken[occasion.id][_seat] == address(0),\n            \"Seat is already taken at this address\"\n        );\n        require(\n            occasion.seatsBooked < occasion.maxTickets,\n            \"All seats are booked\"\n        );\n        uint256 ticketCost = occasion.cost;\n        require(msg.value >= ticketCost, \"Insufficient funds\");\n\n        occasion.tickets = occasion.tickets.add(1);\n        occasion.seatsBooked = occasion.seatsBooked.add(1);\n        seatTaken[occasion.id][_seat] = msg.sender;\n        hasBought[occasion.id][msg.sender] = true;\n        seatsTaken[occasion.id].push(_seat);\n\n        payable(owner).transfer(ticketCost);\n        totalSupply++;\n\n        _mint(msg.sender, totalSupply);\n\n        occasion.ownershipHistory.push(msg.sender);\n        emit LogSeatTaken(occasion.id, _seat, msg.sender);\n\n        emit TicketPurchased(occasion.id, _seat, ticketCost, msg.sender);\n    }\n\n    function refundTicket(\n        uint256 _occasionId,\n        uint256 _seatNumber\n    ) external onlyOwner {\n        Occasion storage occasion = occasions[_occasionId];\n\n        require(occasion.id != 0, \"Invalid occasion ID\");\n\n        require(\n            _seatNumber > 0 && _seatNumber <= occasion.maxTickets,\n            \"Invalid seat number\"\n        );\n\n        address buyer = seatTaken[occasion.id][_seatNumber];\n        require(buyer != address(0), \"Seat is not taken\");\n\n        require(hasBought[occasion.id][buyer], \"Buyer has not bought a ticket\");\n\n        uint256 refundAmount = occasion.cost;\n        (bool success, ) = payable(buyer).call{value: refundAmount}(\"\");\n        require(success, \"Refund failed\");\n\n        occasion.tickets = occasion.tickets.sub(1);\n        occasion.seatsBooked = occasion.seatsBooked.sub(1);\n        seatTaken[occasion.id][_seatNumber] = address(0);\n        hasBought[occasion.id][buyer] = false;\n\n        emit TicketRefunded(occasion.id, _seatNumber, refundAmount, buyer);\n    }\n\n    function getSeatInfo(\n        uint256 _occasionId,\n        uint256 _seatNumber\n    ) public view returns (uint256 cost, address buyer) {\n        Occasion storage occasion = occasions[_occasionId];\n\n        require(occasion.id != 0, \"Invalid occasion ID\");\n        require(\n            _seatNumber > 0 && _seatNumber <= occasion.maxTickets,\n            \"Invalid seat number\"\n        );\n\n        cost = occasion.cost;\n        buyer = seatTaken[occasion.id][_seatNumber];\n\n        require(buyer != address(0), \"Seat is not taken\");\n\n        return (cost, buyer);\n    }\n\n    function getOccasion(uint256 _id) public view returns (Occasion memory) {\n        return occasions[_id];\n    }\n\n    function getSeatsTaken(uint256 _id) public view returns (uint256[] memory) {\n        return seatsTaken[_id];\n    }\n\n    // Add a function to get the occasion ID by name\n    function getOccasionIdByName(string memory _name) public view returns (uint256) {\n         return occasionIdsByName[_name];\n}\n\n    function sendTransaction() external payable {\n        require(msg.value > 0, \"Amount must be greater than 0\");\n        emit TransactionSent(msg.sender, msg.value);\n    }\n\n    function withdraw() public onlyOwner {\n        (bool success, ) = owner.call{value: address(this).balance}(\"\");\n        require(success);\n    }\n\n    function sayHello() external pure returns (string memory) {\n        return \"Hello world!!\";\n    }\n}\n",
  "sourcePath": "/home/sanah/Desktop/token_master/contracts/TokerMaster.sol",
  "compiler": {
    "name": "solc",
    "version": "0.8.9+commit.e5eed63a.Emscripten.clang"
  },
  "schemaVersion": "3.4.16",
  "updatedAt": "2024-01-08T04:27:27.958Z",
  "networkType": "ethereum",
  "devdoc": {
    "kind": "dev",
    "methods": {
      "approve(address,uint256)": {
        "details": "See {IERC721-approve}."
      },
      "balanceOf(address)": {
        "details": "See {IERC721-balanceOf}."
      },
      "getApproved(uint256)": {
        "details": "See {IERC721-getApproved}."
      },
      "isApprovedForAll(address,address)": {
        "details": "See {IERC721-isApprovedForAll}."
      },
      "name()": {
        "details": "See {IERC721Metadata-name}."
      },
      "ownerOf(uint256)": {
        "details": "See {IERC721-ownerOf}."
      },
      "safeTransferFrom(address,address,uint256)": {
        "details": "See {IERC721-safeTransferFrom}."
      },
      "safeTransferFrom(address,address,uint256,bytes)": {
        "details": "See {IERC721-safeTransferFrom}."
      },
      "setApprovalForAll(address,bool)": {
        "details": "See {IERC721-setApprovalForAll}."
      },
      "supportsInterface(bytes4)": {
        "details": "See {IERC165-supportsInterface}."
      },
      "symbol()": {
        "details": "See {IERC721Metadata-symbol}."
      },
      "tokenURI(uint256)": {
        "details": "See {IERC721Metadata-tokenURI}."
      },
      "transferFrom(address,address,uint256)": {
        "details": "See {IERC721-transferFrom}."
      }
    },
    "version": 1
  },
  "userdoc": {
    "kind": "user",
    "methods": {},
    "version": 1
  }
}