{
  "contractName": "TokenMaster",
  "abi": [
    {
      "inputs": [
        {
          "internalType": "string",
          "name": "_name",
          "type": "string"
        },
        {
          "internalType": "string",
          "name": "_symbol",
          "type": "string"
        }
      ],
      "stateMutability": "nonpayable",
      "type": "constructor"
    },
    {
      "anonymous": false,
      "inputs": [
        {
          "indexed": true,
          "internalType": "address",
          "name": "owner",
          "type": "address"
        },
        {
          "indexed": true,
          "internalType": "address",
          "name": "approved",
          "type": "address"
        },
        {
          "indexed": true,
          "internalType": "uint256",
          "name": "tokenId",
          "type": "uint256"
        }
      ],
      "name": "Approval",
      "type": "event"
    },
    {
      "anonymous": false,
      "inputs": [
        {
          "indexed": true,
          "internalType": "address",
          "name": "owner",
          "type": "address"
        },
        {
          "indexed": true,
          "internalType": "address",
          "name": "operator",
          "type": "address"
        },
        {
          "indexed": false,
          "internalType": "bool",
          "name": "approved",
          "type": "bool"
        }
      ],
      "name": "ApprovalForAll",
      "type": "event"
    },
    {
      "anonymous": false,
      "inputs": [
        {
          "indexed": true,
          "internalType": "address",
          "name": "sender",
          "type": "address"
        },
        {
          "indexed": false,
          "internalType": "uint256",
          "name": "amount",
          "type": "uint256"
        }
      ],
      "name": "TransactionSent",
      "type": "event"
    },
    {
      "anonymous": false,
      "inputs": [
        {
          "indexed": true,
          "internalType": "address",
          "name": "from",
          "type": "address"
        },
        {
          "indexed": true,
          "internalType": "address",
          "name": "to",
          "type": "address"
        },
        {
          "indexed": true,
          "internalType": "uint256",
          "name": "tokenId",
          "type": "uint256"
        }
      ],
      "name": "Transfer",
      "type": "event"
    },
    {
      "inputs": [
        {
          "internalType": "address",
          "name": "to",
          "type": "address"
        },
        {
          "internalType": "uint256",
          "name": "tokenId",
          "type": "uint256"
        }
      ],
      "name": "approve",
      "outputs": [],
      "stateMutability": "nonpayable",
      "type": "function"
    },
    {
      "inputs": [
        {
          "internalType": "address",
          "name": "owner",
          "type": "address"
        }
      ],
      "name": "balanceOf",
      "outputs": [
        {
          "internalType": "uint256",
          "name": "",
          "type": "uint256"
        }
      ],
      "stateMutability": "view",
      "type": "function",
      "constant": true
    },
    {
      "inputs": [
        {
          "internalType": "uint256",
          "name": "tokenId",
          "type": "uint256"
        }
      ],
      "name": "getApproved",
      "outputs": [
        {
          "internalType": "address",
          "name": "",
          "type": "address"
        }
      ],
      "stateMutability": "view",
      "type": "function",
      "constant": true
    },
    {
      "inputs": [
        {
          "internalType": "uint256",
          "name": "",
          "type": "uint256"
        },
        {
          "internalType": "address",
          "name": "",
          "type": "address"
        }
      ],
      "name": "hasBought",
      "outputs": [
        {
          "internalType": "bool",
          "name": "",
          "type": "bool"
        }
      ],
      "stateMutability": "view",
      "type": "function",
      "constant": true
    },
    {
      "inputs": [
        {
          "internalType": "address",
          "name": "owner",
          "type": "address"
        },
        {
          "internalType": "address",
          "name": "operator",
          "type": "address"
        }
      ],
      "name": "isApprovedForAll",
      "outputs": [
        {
          "internalType": "bool",
          "name": "",
          "type": "bool"
        }
      ],
      "stateMutability": "view",
      "type": "function",
      "constant": true
    },
    {
      "inputs": [],
      "name": "name",
      "outputs": [
        {
          "internalType": "string",
          "name": "",
          "type": "string"
        }
      ],
      "stateMutability": "view",
      "type": "function",
      "constant": true
    },
    {
      "inputs": [],
      "name": "owner",
      "outputs": [
        {
          "internalType": "address",
          "name": "",
          "type": "address"
        }
      ],
      "stateMutability": "view",
      "type": "function",
      "constant": true
    },
    {
      "inputs": [
        {
          "internalType": "uint256",
          "name": "tokenId",
          "type": "uint256"
        }
      ],
      "name": "ownerOf",
      "outputs": [
        {
          "internalType": "address",
          "name": "",
          "type": "address"
        }
      ],
      "stateMutability": "view",
      "type": "function",
      "constant": true
    },
    {
      "inputs": [
        {
          "internalType": "address",
          "name": "from",
          "type": "address"
        },
        {
          "internalType": "address",
          "name": "to",
          "type": "address"
        },
        {
          "internalType": "uint256",
          "name": "tokenId",
          "type": "uint256"
        }
      ],
      "name": "safeTransferFrom",
      "outputs": [],
      "stateMutability": "nonpayable",
      "type": "function"
    },
    {
      "inputs": [
        {
          "internalType": "address",
          "name": "from",
          "type": "address"
        },
        {
          "internalType": "address",
          "name": "to",
          "type": "address"
        },
        {
          "internalType": "uint256",
          "name": "tokenId",
          "type": "uint256"
        },
        {
          "internalType": "bytes",
          "name": "data",
          "type": "bytes"
        }
      ],
      "name": "safeTransferFrom",
      "outputs": [],
      "stateMutability": "nonpayable",
      "type": "function"
    },
    {
      "inputs": [
        {
          "internalType": "uint256",
          "name": "",
          "type": "uint256"
        },
        {
          "internalType": "uint256",
          "name": "",
          "type": "uint256"
        }
      ],
      "name": "seatTaken",
      "outputs": [
        {
          "internalType": "address",
          "name": "",
          "type": "address"
        }
      ],
      "stateMutability": "view",
      "type": "function",
      "constant": true
    },
    {
      "inputs": [
        {
          "internalType": "address",
          "name": "operator",
          "type": "address"
        },
        {
          "internalType": "bool",
          "name": "approved",
          "type": "bool"
        }
      ],
      "name": "setApprovalForAll",
      "outputs": [],
      "stateMutability": "nonpayable",
      "type": "function"
    },
    {
      "inputs": [
        {
          "internalType": "bytes4",
          "name": "interfaceId",
          "type": "bytes4"
        }
      ],
      "name": "supportsInterface",
      "outputs": [
        {
          "internalType": "bool",
          "name": "",
          "type": "bool"
        }
      ],
      "stateMutability": "view",
      "type": "function",
      "constant": true
    },
    {
      "inputs": [],
      "name": "symbol",
      "outputs": [
        {
          "internalType": "string",
          "name": "",
          "type": "string"
        }
      ],
      "stateMutability": "view",
      "type": "function",
      "constant": true
    },
    {
      "inputs": [
        {
          "internalType": "address",
          "name": "",
          "type": "address"
        }
      ],
      "name": "ticketsPurchased",
      "outputs": [
        {
          "internalType": "uint256",
          "name": "",
          "type": "uint256"
        }
      ],
      "stateMutability": "view",
      "type": "function",
      "constant": true
    },
    {
      "inputs": [
        {
          "internalType": "uint256",
          "name": "tokenId",
          "type": "uint256"
        }
      ],
      "name": "tokenURI",
      "outputs": [
        {
          "internalType": "string",
          "name": "",
          "type": "string"
        }
      ],
      "stateMutability": "view",
      "type": "function",
      "constant": true
    },
    {
      "inputs": [],
      "name": "totalOccasions",
      "outputs": [
        {
          "internalType": "uint256",
          "name": "",
          "type": "uint256"
        }
      ],
      "stateMutability": "view",
      "type": "function",
      "constant": true
    },
    {
      "inputs": [],
      "name": "totalSupply",
      "outputs": [
        {
          "internalType": "uint256",
          "name": "",
          "type": "uint256"
        }
      ],
      "stateMutability": "view",
      "type": "function",
      "constant": true
    },
    {
      "inputs": [
        {
          "internalType": "address",
          "name": "from",
          "type": "address"
        },
        {
          "internalType": "address",
          "name": "to",
          "type": "address"
        },
        {
          "internalType": "uint256",
          "name": "tokenId",
          "type": "uint256"
        }
      ],
      "name": "transferFrom",
      "outputs": [],
      "stateMutability": "nonpayable",
      "type": "function"
    },
    {
      "inputs": [
        {
          "internalType": "string",
          "name": "_name",
          "type": "string"
        },
        {
          "internalType": "uint256",
          "name": "_cost",
          "type": "uint256"
        },
        {
          "internalType": "uint256",
          "name": "_maxTickets",
          "type": "uint256"
        },
        {
          "internalType": "string",
          "name": "_date",
          "type": "string"
        },
        {
          "internalType": "string",
          "name": "_time",
          "type": "string"
        },
        {
          "internalType": "string",
          "name": "_location",
          "type": "string"
        }
      ],
      "name": "list",
      "outputs": [],
      "stateMutability": "nonpayable",
      "type": "function"
    },
    {
      "inputs": [
        {
          "internalType": "uint256",
          "name": "_id",
          "type": "uint256"
        },
        {
          "internalType": "uint256",
          "name": "_seat",
          "type": "uint256"
        }
      ],
      "name": "mint",
      "outputs": [],
      "stateMutability": "payable",
      "type": "function",
      "payable": true
    },
    {
      "inputs": [
        {
          "internalType": "uint256",
          "name": "_id",
          "type": "uint256"
        }
      ],
      "name": "getOccasion",
      "outputs": [
        {
          "components": [
            {
              "internalType": "uint256",
              "name": "id",
              "type": "uint256"
            },
            {
              "internalType": "string",
              "name": "name",
              "type": "string"
            },
            {
              "internalType": "uint256",
              "name": "cost",
              "type": "uint256"
            },
            {
              "internalType": "uint256",
              "name": "tickets",
              "type": "uint256"
            },
            {
              "internalType": "uint256",
              "name": "maxTickets",
              "type": "uint256"
            },
            {
              "internalType": "string",
              "name": "date",
              "type": "string"
            },
            {
              "internalType": "string",
              "name": "time",
              "type": "string"
            },
            {
              "internalType": "string",
              "name": "location",
              "type": "string"
            }
          ],
          "internalType": "struct TokenMaster.Occasion",
          "name": "",
          "type": "tuple"
        }
      ],
      "stateMutability": "view",
      "type": "function",
      "constant": true
    },
    {
      "inputs": [
        {
          "internalType": "uint256",
          "name": "_id",
          "type": "uint256"
        }
      ],
      "name": "getSeatsTaken",
      "outputs": [
        {
          "internalType": "uint256[]",
          "name": "",
          "type": "uint256[]"
        }
      ],
      "stateMutability": "view",
      "type": "function",
      "constant": true
    },
    {
      "inputs": [],
      "name": "sendTransaction",
      "outputs": [],
      "stateMutability": "payable",
      "type": "function",
      "payable": true
    },
    {
      "inputs": [],
      "name": "withdraw",
      "outputs": [],
      "stateMutability": "nonpayable",
      "type": "function"
    },
    {
      "inputs": [],
      "name": "sayHello",
      "outputs": [
        {
          "internalType": "string",
          "name": "",
          "type": "string"
        }
      ],
      "stateMutability": "pure",
      "type": "function",
      "constant": true
    }
  ],
  "bytecode": "0x60806040523480156200001157600080fd5b5060405162003ccf38038062003ccf833981810160405281019062000037919062000303565b8181816000908051906020019062000051929190620000b6565b5080600190805190602001906200006a929190620000b6565b50505033600660006101000a81548173ffffffffffffffffffffffffffffffffffffffff021916908373ffffffffffffffffffffffffffffffffffffffff1602179055505050620003ed565b828054620000c490620003b7565b90600052602060002090601f016020900481019282620000e8576000855562000134565b82601f106200010357805160ff191683800117855562000134565b8280016001018555821562000134579182015b828111156200013357825182559160200191906001019062000116565b5b50905062000143919062000147565b5090565b5b808211156200016257600081600090555060010162000148565b5090565b6000604051905090565b600080fd5b600080fd5b600080fd5b600080fd5b6000601f19601f8301169050919050565b7f4e487b7100000000000000000000000000000000000000000000000000000000600052604160045260246000fd5b620001cf8262000184565b810181811067ffffffffffffffff82111715620001f157620001f062000195565b5b80604052505050565b60006200020662000166565b9050620002148282620001c4565b919050565b600067ffffffffffffffff82111562000237576200023662000195565b5b620002428262000184565b9050602081019050919050565b60005b838110156200026f57808201518184015260208101905062000252565b838111156200027f576000848401525b50505050565b60006200029c620002968462000219565b620001fa565b905082815260208101848484011115620002bb57620002ba6200017f565b5b620002c88482856200024f565b509392505050565b600082601f830112620002e857620002e76200017a565b5b8151620002fa84826020860162000285565b91505092915050565b600080604083850312156200031d576200031c62000170565b5b600083015167ffffffffffffffff8111156200033e576200033d62000175565b5b6200034c85828601620002d0565b925050602083015167ffffffffffffffff81111562000370576200036f62000175565b5b6200037e85828601620002d0565b9150509250929050565b7f4e487b7100000000000000000000000000000000000000000000000000000000600052602260045260246000fd5b60006002820490506001821680620003d057607f821691505b60208210811415620003e757620003e662000388565b5b50919050565b6138d280620003fd6000396000f3fe6080604052600436106101815760003560e01c806374bc8656116100d1578063a22cb4651161008a578063b88d4fde11610064578063b88d4fde1461058c578063c87b56dd146105b5578063e985e9c5146105f2578063ef5fb05b1461062f57610181565b8063a22cb4651461051c578063a47a2e0614610545578063af296da11461054f57610181565b806374bc8656146103f85780638da5cb5b14610435578063953865c11461046057806395d89b411461048b5780639a382f0f146104b65780639cb04aef146104df57610181565b80631b2ef1ca1161013e57806342842e0e1161011857806342842e0e146103185780636352211e146103415780636ccda0a61461037e57806370a08231146103bb57610181565b80631b2ef1ca146102bc57806323b872dd146102d85780633ccfd60b1461030157610181565b806301ffc9a71461018657806306fdde03146101c3578063081812fc146101ee578063095ea7b31461022b5780630ef7ec741461025457806318160ddd14610291575b600080fd5b34801561019257600080fd5b506101ad60048036038101906101a891906125cb565b61065a565b6040516101ba9190612613565b60405180910390f35b3480156101cf57600080fd5b506101d861073c565b6040516101e591906126c7565b60405180910390f35b3480156101fa57600080fd5b506102156004803603810190610210919061271f565b6107ce565b604051610222919061278d565b60405180910390f35b34801561023757600080fd5b50610252600480360381019061024d91906127d4565b610814565b005b34801561026057600080fd5b5061027b6004803603810190610276919061271f565b61092c565b60405161028891906128d2565b60405180910390f35b34801561029d57600080fd5b506102a6610997565b6040516102b39190612903565b60405180910390f35b6102d660048036038101906102d1919061291e565b61099d565b005b3480156102e457600080fd5b506102ff60048036038101906102fa919061295e565b610bd9565b005b34801561030d57600080fd5b50610316610c39565b005b34801561032457600080fd5b5061033f600480360381019061033a919061295e565b610d64565b005b34801561034d57600080fd5b506103686004803603810190610363919061271f565b610d84565b604051610375919061278d565b60405180910390f35b34801561038a57600080fd5b506103a560048036038101906103a091906129b1565b610e0b565b6040516103b29190612903565b60405180910390f35b3480156103c757600080fd5b506103e260048036038101906103dd91906129b1565b610e23565b6040516103ef9190612903565b60405180910390f35b34801561040457600080fd5b5061041f600480360381019061041a919061271f565b610edb565b60405161042c9190612aed565b60405180910390f35b34801561044157600080fd5b5061044a611179565b604051610457919061278d565b60405180910390f35b34801561046c57600080fd5b5061047561119f565b6040516104829190612903565b60405180910390f35b34801561049757600080fd5b506104a06111a5565b6040516104ad91906126c7565b60405180910390f35b3480156104c257600080fd5b506104dd60048036038101906104d89190612c44565b611237565b005b3480156104eb57600080fd5b5061050660048036038101906105019190612d41565b6113d7565b6040516105139190612613565b60405180910390f35b34801561052857600080fd5b50610543600480360381019061053e9190612dad565b611406565b005b61054d61141c565b005b34801561055b57600080fd5b506105766004803603810190610571919061291e565b6114af565b604051610583919061278d565b60405180910390f35b34801561059857600080fd5b506105b360048036038101906105ae9190612e8e565b6114f1565b005b3480156105c157600080fd5b506105dc60048036038101906105d7919061271f565b611553565b6040516105e991906126c7565b60405180910390f35b3480156105fe57600080fd5b5061061960048036038101906106149190612f11565b6115bb565b6040516106269190612613565b60405180910390f35b34801561063b57600080fd5b5061064461164f565b60405161065191906126c7565b60405180910390f35b60007f80ac58cd000000000000000000000000000000000000000000000000000000007bffffffffffffffffffffffffffffffffffffffffffffffffffffffff1916827bffffffffffffffffffffffffffffffffffffffffffffffffffffffff1916148061072557507f5b5e139f000000000000000000000000000000000000000000000000000000007bffffffffffffffffffffffffffffffffffffffffffffffffffffffff1916827bffffffffffffffffffffffffffffffffffffffffffffffffffffffff1916145b8061073557506107348261168c565b5b9050919050565b60606000805461074b90612f80565b80601f016020809104026020016040519081016040528092919081815260200182805461077790612f80565b80156107c45780601f10610799576101008083540402835291602001916107c4565b820191906000526020600020905b8154815290600101906020018083116107a757829003601f168201915b5050505050905090565b60006107d9826116f6565b6004600083815260200190815260200160002060009054906101000a900473ffffffffffffffffffffffffffffffffffffffff169050919050565b600061081f82610d84565b90508073ffffffffffffffffffffffffffffffffffffffff168373ffffffffffffffffffffffffffffffffffffffff161415610890576040517f08c379a000000000000000000000000000000000000000000000000000000000815260040161088790613024565b60405180910390fd5b8073ffffffffffffffffffffffffffffffffffffffff166108af611741565b73ffffffffffffffffffffffffffffffffffffffff1614806108de57506108dd816108d8611741565b6115bb565b5b61091d576040517f08c379a0000000000000000000000000000000000000000000000000000000008152600401610914906130b6565b60405180910390fd5b6109278383611749565b505050565b6060600c600083815260200190815260200160002080548060200260200160405190810160405280929190818152602001828054801561098b57602002820191906000526020600020905b815481526020019060010190808311610977575b50505050509050919050565b60085481565b60008214156109ab57600080fd5b6007548211156109ba57600080fd5b60096000838152602001908152602001600020600201543410156109dd57600080fd5b600073ffffffffffffffffffffffffffffffffffffffff16600b6000848152602001908152602001600020600083815260200190815260200160002060009054906101000a900473ffffffffffffffffffffffffffffffffffffffff1673ffffffffffffffffffffffffffffffffffffffff1614610a5a57600080fd5b6009600083815260200190815260200160002060040154811115610a7d57600080fd5b6001600960008481526020019081526020016000206003016000828254610aa49190613105565b925050819055506001600a600084815260200190815260200160002060003373ffffffffffffffffffffffffffffffffffffffff1673ffffffffffffffffffffffffffffffffffffffff16815260200190815260200160002060006101000a81548160ff02191690831515021790555033600b6000848152602001908152602001600020600083815260200190815260200160002060006101000a81548173ffffffffffffffffffffffffffffffffffffffff021916908373ffffffffffffffffffffffffffffffffffffffff160217905550600c600083815260200190815260200160002081908060018154018082558091505060019003906000526020600020016000909190919091505560086000815480929190610bc490613139565b9190505550610bd533600854611802565b5050565b610bea610be4611741565b82611820565b610c29576040517f08c379a0000000000000000000000000000000000000000000000000000000008152600401610c20906131f4565b60405180910390fd5b610c348383836118b5565b505050565b600660009054906101000a900473ffffffffffffffffffffffffffffffffffffffff1673ffffffffffffffffffffffffffffffffffffffff163373ffffffffffffffffffffffffffffffffffffffff1614610cc9576040517f08c379a0000000000000000000000000000000000000000000000000000000008152600401610cc090613260565b60405180910390fd5b6000600660009054906101000a900473ffffffffffffffffffffffffffffffffffffffff1673ffffffffffffffffffffffffffffffffffffffff1647604051610d11906132b1565b60006040518083038185875af1925050503d8060008114610d4e576040519150601f19603f3d011682016040523d82523d6000602084013e610d53565b606091505b5050905080610d6157600080fd5b50565b610d7f838383604051806020016040528060008152506114f1565b505050565b600080610d9083611baf565b9050600073ffffffffffffffffffffffffffffffffffffffff168173ffffffffffffffffffffffffffffffffffffffff161415610e02576040517f08c379a0000000000000000000000000000000000000000000000000000000008152600401610df990613312565b60405180910390fd5b80915050919050565b600d6020528060005260406000206000915090505481565b60008073ffffffffffffffffffffffffffffffffffffffff168273ffffffffffffffffffffffffffffffffffffffff161415610e94576040517f08c379a0000000000000000000000000000000000000000000000000000000008152600401610e8b906133a4565b60405180910390fd5b600360008373ffffffffffffffffffffffffffffffffffffffff1673ffffffffffffffffffffffffffffffffffffffff168152602001908152602001600020549050919050565b610ee3612477565b600960008381526020019081526020016000206040518061010001604052908160008201548152602001600182018054610f1c90612f80565b80601f0160208091040260200160405190810160405280929190818152602001828054610f4890612f80565b8015610f955780601f10610f6a57610100808354040283529160200191610f95565b820191906000526020600020905b815481529060010190602001808311610f7857829003601f168201915b50505050508152602001600282015481526020016003820154815260200160048201548152602001600582018054610fcc90612f80565b80601f0160208091040260200160405190810160405280929190818152602001828054610ff890612f80565b80156110455780601f1061101a57610100808354040283529160200191611045565b820191906000526020600020905b81548152906001019060200180831161102857829003601f168201915b5050505050815260200160068201805461105e90612f80565b80601f016020809104026020016040519081016040528092919081815260200182805461108a90612f80565b80156110d75780601f106110ac576101008083540402835291602001916110d7565b820191906000526020600020905b8154815290600101906020018083116110ba57829003601f168201915b505050505081526020016007820180546110f090612f80565b80601f016020809104026020016040519081016040528092919081815260200182805461111c90612f80565b80156111695780601f1061113e57610100808354040283529160200191611169565b820191906000526020600020905b81548152906001019060200180831161114c57829003601f168201915b5050505050815250509050919050565b600660009054906101000a900473ffffffffffffffffffffffffffffffffffffffff1681565b60075481565b6060600180546111b490612f80565b80601f01602080910402602001604051908101604052809291908181526020018280546111e090612f80565b801561122d5780601f106112025761010080835404028352916020019161122d565b820191906000526020600020905b81548152906001019060200180831161121057829003601f168201915b5050505050905090565b600660009054906101000a900473ffffffffffffffffffffffffffffffffffffffff1673ffffffffffffffffffffffffffffffffffffffff163373ffffffffffffffffffffffffffffffffffffffff16146112c7576040517f08c379a00000000000000000000000000000000000000000000000000000000081526004016112be90613260565b60405180910390fd5b600760008154809291906112da90613139565b91905055506040518061010001604052806007548152602001878152602001868152602001858152602001858152602001848152602001838152602001828152506009600060075481526020019081526020016000206000820151816000015560208201518160010190805190602001906113569291906124bc565b5060408201518160020155606082015181600301556080820151816004015560a08201518160050190805190602001906113919291906124bc565b5060c08201518160060190805190602001906113ae9291906124bc565b5060e08201518160070190805190602001906113cb9291906124bc565b50905050505050505050565b600a6020528160005260406000206020528060005260406000206000915091509054906101000a900460ff1681565b611418611411611741565b8383611bec565b5050565b6000341161145f576040517f08c379a000000000000000000000000000000000000000000000000000000000815260040161145690613410565b60405180910390fd5b3373ffffffffffffffffffffffffffffffffffffffff167f4970bf8595442008a41b189fc026906b953e2a419e3029e6d0d6ce02a33ba85d346040516114a59190612903565b60405180910390a2565b600b6020528160005260406000206020528060005260406000206000915091509054906101000a900473ffffffffffffffffffffffffffffffffffffffff1681565b6115026114fc611741565b83611820565b611541576040517f08c379a0000000000000000000000000000000000000000000000000000000008152600401611538906131f4565b60405180910390fd5b61154d84848484611d59565b50505050565b606061155e826116f6565b6000611568611db5565b9050600081511161158857604051806020016040528060008152506115b3565b8061159284611dcc565b6040516020016115a392919061346c565b6040516020818303038152906040525b915050919050565b6000600560008473ffffffffffffffffffffffffffffffffffffffff1673ffffffffffffffffffffffffffffffffffffffff16815260200190815260200160002060008373ffffffffffffffffffffffffffffffffffffffff1673ffffffffffffffffffffffffffffffffffffffff16815260200190815260200160002060009054906101000a900460ff16905092915050565b60606040518060400160405280600d81526020017f48656c6c6f20776f726c64212100000000000000000000000000000000000000815250905090565b60007f01ffc9a7000000000000000000000000000000000000000000000000000000007bffffffffffffffffffffffffffffffffffffffffffffffffffffffff1916827bffffffffffffffffffffffffffffffffffffffffffffffffffffffff1916149050919050565b6116ff81611ea4565b61173e576040517f08c379a000000000000000000000000000000000000000000000000000000000815260040161173590613312565b60405180910390fd5b50565b600033905090565b816004600083815260200190815260200160002060006101000a81548173ffffffffffffffffffffffffffffffffffffffff021916908373ffffffffffffffffffffffffffffffffffffffff160217905550808273ffffffffffffffffffffffffffffffffffffffff166117bc83610d84565b73ffffffffffffffffffffffffffffffffffffffff167f8c5be1e5ebec7d5bd14f71427d1e84f3dd0314c0f7b2291e5b200ac8c7c3b92560405160405180910390a45050565b61181c828260405180602001604052806000815250611ee5565b5050565b60008061182c83610d84565b90508073ffffffffffffffffffffffffffffffffffffffff168473ffffffffffffffffffffffffffffffffffffffff16148061186e575061186d81856115bb565b5b806118ac57508373ffffffffffffffffffffffffffffffffffffffff16611894846107ce565b73ffffffffffffffffffffffffffffffffffffffff16145b91505092915050565b8273ffffffffffffffffffffffffffffffffffffffff166118d582610d84565b73ffffffffffffffffffffffffffffffffffffffff161461192b576040517f08c379a000000000000000000000000000000000000000000000000000000000815260040161192290613502565b60405180910390fd5b600073ffffffffffffffffffffffffffffffffffffffff168273ffffffffffffffffffffffffffffffffffffffff16141561199b576040517f08c379a000000000000000000000000000000000000000000000000000000000815260040161199290613594565b60405180910390fd5b6119a88383836001611f40565b8273ffffffffffffffffffffffffffffffffffffffff166119c882610d84565b73ffffffffffffffffffffffffffffffffffffffff1614611a1e576040517f08c379a0000000000000000000000000000000000000000000000000000000008152600401611a1590613502565b60405180910390fd5b6004600082815260200190815260200160002060006101000a81549073ffffffffffffffffffffffffffffffffffffffff02191690556001600360008573ffffffffffffffffffffffffffffffffffffffff1673ffffffffffffffffffffffffffffffffffffffff168152602001908152602001600020600082825403925050819055506001600360008473ffffffffffffffffffffffffffffffffffffffff1673ffffffffffffffffffffffffffffffffffffffff16815260200190815260200160002060008282540192505081905550816002600083815260200190815260200160002060006101000a81548173ffffffffffffffffffffffffffffffffffffffff021916908373ffffffffffffffffffffffffffffffffffffffff160217905550808273ffffffffffffffffffffffffffffffffffffffff168473ffffffffffffffffffffffffffffffffffffffff167fddf252ad1be2c89b69c2b068fc378daa952ba7f163c4a11628f55a4df523b3ef60405160405180910390a4611baa8383836001611f46565b505050565b60006002600083815260200190815260200160002060009054906101000a900473ffffffffffffffffffffffffffffffffffffffff169050919050565b8173ffffffffffffffffffffffffffffffffffffffff168373ffffffffffffffffffffffffffffffffffffffff161415611c5b576040517f08c379a0000000000000000000000000000000000000000000000000000000008152600401611c5290613600565b60405180910390fd5b80600560008573ffffffffffffffffffffffffffffffffffffffff1673ffffffffffffffffffffffffffffffffffffffff16815260200190815260200160002060008473ffffffffffffffffffffffffffffffffffffffff1673ffffffffffffffffffffffffffffffffffffffff16815260200190815260200160002060006101000a81548160ff0219169083151502179055508173ffffffffffffffffffffffffffffffffffffffff168373ffffffffffffffffffffffffffffffffffffffff167f17307eab39ab6107e8899845ad3d59bd9653f200f220920489ca2b5937696c3183604051611d4c9190612613565b60405180910390a3505050565b611d648484846118b5565b611d7084848484611f4c565b611daf576040517f08c379a0000000000000000000000000000000000000000000000000000000008152600401611da690613692565b60405180910390fd5b50505050565b606060405180602001604052806000815250905090565b606060006001611ddb846120e3565b01905060008167ffffffffffffffff811115611dfa57611df9612b19565b5b6040519080825280601f01601f191660200182016040528015611e2c5781602001600182028036833780820191505090505b509050600082602001820190505b600115611e99578080600190039150507f3031323334353637383961626364656600000000000000000000000000000000600a86061a8153600a8581611e8357611e826136b2565b5b0494506000851415611e9457611e99565b611e3a565b819350505050919050565b60008073ffffffffffffffffffffffffffffffffffffffff16611ec683611baf565b73ffffffffffffffffffffffffffffffffffffffff1614159050919050565b611eef8383612236565b611efc6000848484611f4c565b611f3b576040517f08c379a0000000000000000000000000000000000000000000000000000000008152600401611f3290613692565b60405180910390fd5b505050565b50505050565b50505050565b6000611f6d8473ffffffffffffffffffffffffffffffffffffffff16612454565b156120d6578373ffffffffffffffffffffffffffffffffffffffff1663150b7a02611f96611741565b8786866040518563ffffffff1660e01b8152600401611fb89493929190613736565b602060405180830381600087803b158015611fd257600080fd5b505af192505050801561200357506040513d601f19601f820116820180604052508101906120009190613797565b60015b612086573d8060008114612033576040519150601f19603f3d011682016040523d82523d6000602084013e612038565b606091505b5060008151141561207e576040517f08c379a000000000000000000000000000000000000000000000000000000000815260040161207590613692565b60405180910390fd5b805181602001fd5b63150b7a0260e01b7bffffffffffffffffffffffffffffffffffffffffffffffffffffffff1916817bffffffffffffffffffffffffffffffffffffffffffffffffffffffff1916149150506120db565b600190505b949350505050565b600080600090507a184f03e93ff9f4daa797ed6e38ed64bf6a1f0100000000000000008310612141577a184f03e93ff9f4daa797ed6e38ed64bf6a1f0100000000000000008381612137576121366136b2565b5b0492506040810190505b6d04ee2d6d415b85acef8100000000831061217e576d04ee2d6d415b85acef81000000008381612174576121736136b2565b5b0492506020810190505b662386f26fc1000083106121ad57662386f26fc1000083816121a3576121a26136b2565b5b0492506010810190505b6305f5e10083106121d6576305f5e10083816121cc576121cb6136b2565b5b0492506008810190505b61271083106121fb5761271083816121f1576121f06136b2565b5b0492506004810190505b6064831061221e5760648381612214576122136136b2565b5b0492506002810190505b600a831061222d576001810190505b80915050919050565b600073ffffffffffffffffffffffffffffffffffffffff168273ffffffffffffffffffffffffffffffffffffffff1614156122a6576040517f08c379a000000000000000000000000000000000000000000000000000000000815260040161229d90613810565b60405180910390fd5b6122af81611ea4565b156122ef576040517f08c379a00000000000000000000000000000000000000000000000000000000081526004016122e69061387c565b60405180910390fd5b6122fd600083836001611f40565b61230681611ea4565b15612346576040517f08c379a000000000000000000000000000000000000000000000000000000000815260040161233d9061387c565b60405180910390fd5b6001600360008473ffffffffffffffffffffffffffffffffffffffff1673ffffffffffffffffffffffffffffffffffffffff16815260200190815260200160002060008282540192505081905550816002600083815260200190815260200160002060006101000a81548173ffffffffffffffffffffffffffffffffffffffff021916908373ffffffffffffffffffffffffffffffffffffffff160217905550808273ffffffffffffffffffffffffffffffffffffffff16600073ffffffffffffffffffffffffffffffffffffffff167fddf252ad1be2c89b69c2b068fc378daa952ba7f163c4a11628f55a4df523b3ef60405160405180910390a4612450600083836001611f46565b5050565b6000808273ffffffffffffffffffffffffffffffffffffffff163b119050919050565b60405180610100016040528060008152602001606081526020016000815260200160008152602001600081526020016060815260200160608152602001606081525090565b8280546124c890612f80565b90600052602060002090601f0160209004810192826124ea5760008555612531565b82601f1061250357805160ff1916838001178555612531565b82800160010185558215612531579182015b82811115612530578251825591602001919060010190612515565b5b50905061253e9190612542565b5090565b5b8082111561255b576000816000905550600101612543565b5090565b6000604051905090565b600080fd5b600080fd5b60007fffffffff0000000000000000000000000000000000000000000000000000000082169050919050565b6125a881612573565b81146125b357600080fd5b50565b6000813590506125c58161259f565b92915050565b6000602082840312156125e1576125e0612569565b5b60006125ef848285016125b6565b91505092915050565b60008115159050919050565b61260d816125f8565b82525050565b60006020820190506126286000830184612604565b92915050565b600081519050919050565b600082825260208201905092915050565b60005b8381101561266857808201518184015260208101905061264d565b83811115612677576000848401525b50505050565b6000601f19601f8301169050919050565b60006126998261262e565b6126a38185612639565b93506126b381856020860161264a565b6126bc8161267d565b840191505092915050565b600060208201905081810360008301526126e1818461268e565b905092915050565b6000819050919050565b6126fc816126e9565b811461270757600080fd5b50565b600081359050612719816126f3565b92915050565b60006020828403121561273557612734612569565b5b60006127438482850161270a565b91505092915050565b600073ffffffffffffffffffffffffffffffffffffffff82169050919050565b60006127778261274c565b9050919050565b6127878161276c565b82525050565b60006020820190506127a2600083018461277e565b92915050565b6127b18161276c565b81146127bc57600080fd5b50565b6000813590506127ce816127a8565b92915050565b600080604083850312156127eb576127ea612569565b5b60006127f9858286016127bf565b925050602061280a8582860161270a565b9150509250929050565b600081519050919050565b600082825260208201905092915050565b6000819050602082019050919050565b612849816126e9565b82525050565b600061285b8383612840565b60208301905092915050565b6000602082019050919050565b600061287f82612814565b612889818561281f565b935061289483612830565b8060005b838110156128c55781516128ac888261284f565b97506128b783612867565b925050600181019050612898565b5085935050505092915050565b600060208201905081810360008301526128ec8184612874565b905092915050565b6128fd816126e9565b82525050565b600060208201905061291860008301846128f4565b92915050565b6000806040838503121561293557612934612569565b5b60006129438582860161270a565b92505060206129548582860161270a565b9150509250929050565b60008060006060848603121561297757612976612569565b5b6000612985868287016127bf565b9350506020612996868287016127bf565b92505060406129a78682870161270a565b9150509250925092565b6000602082840312156129c7576129c6612569565b5b60006129d5848285016127bf565b91505092915050565b600082825260208201905092915050565b60006129fa8261262e565b612a0481856129de565b9350612a1481856020860161264a565b612a1d8161267d565b840191505092915050565b600061010083016000830151612a416000860182612840565b5060208301518482036020860152612a5982826129ef565b9150506040830151612a6e6040860182612840565b506060830151612a816060860182612840565b506080830151612a946080860182612840565b5060a083015184820360a0860152612aac82826129ef565b91505060c083015184820360c0860152612ac682826129ef565b91505060e083015184820360e0860152612ae082826129ef565b9150508091505092915050565b60006020820190508181036000830152612b078184612a28565b905092915050565b600080fd5b600080fd5b7f4e487b7100000000000000000000000000000000000000000000000000000000600052604160045260246000fd5b612b518261267d565b810181811067ffffffffffffffff82111715612b7057612b6f612b19565b5b80604052505050565b6000612b8361255f565b9050612b8f8282612b48565b919050565b600067ffffffffffffffff821115612baf57612bae612b19565b5b612bb88261267d565b9050602081019050919050565b82818337600083830152505050565b6000612be7612be284612b94565b612b79565b905082815260208101848484011115612c0357612c02612b14565b5b612c0e848285612bc5565b509392505050565b600082601f830112612c2b57612c2a612b0f565b5b8135612c3b848260208601612bd4565b91505092915050565b60008060008060008060c08789031215612c6157612c60612569565b5b600087013567ffffffffffffffff811115612c7f57612c7e61256e565b5b612c8b89828a01612c16565b9650506020612c9c89828a0161270a565b9550506040612cad89828a0161270a565b945050606087013567ffffffffffffffff811115612cce57612ccd61256e565b5b612cda89828a01612c16565b935050608087013567ffffffffffffffff811115612cfb57612cfa61256e565b5b612d0789828a01612c16565b92505060a087013567ffffffffffffffff811115612d2857612d2761256e565b5b612d3489828a01612c16565b9150509295509295509295565b60008060408385031215612d5857612d57612569565b5b6000612d668582860161270a565b9250506020612d77858286016127bf565b9150509250929050565b612d8a816125f8565b8114612d9557600080fd5b50565b600081359050612da781612d81565b92915050565b60008060408385031215612dc457612dc3612569565b5b6000612dd2858286016127bf565b9250506020612de385828601612d98565b9150509250929050565b600067ffffffffffffffff821115612e0857612e07612b19565b5b612e118261267d565b9050602081019050919050565b6000612e31612e2c84612ded565b612b79565b905082815260208101848484011115612e4d57612e4c612b14565b5b612e58848285612bc5565b509392505050565b600082601f830112612e7557612e74612b0f565b5b8135612e85848260208601612e1e565b91505092915050565b60008060008060808587031215612ea857612ea7612569565b5b6000612eb6878288016127bf565b9450506020612ec7878288016127bf565b9350506040612ed88782880161270a565b925050606085013567ffffffffffffffff811115612ef957612ef861256e565b5b612f0587828801612e60565b91505092959194509250565b60008060408385031215612f2857612f27612569565b5b6000612f36858286016127bf565b9250506020612f47858286016127bf565b9150509250929050565b7f4e487b7100000000000000000000000000000000000000000000000000000000600052602260045260246000fd5b60006002820490506001821680612f9857607f821691505b60208210811415612fac57612fab612f51565b5b50919050565b7f4552433732313a20617070726f76616c20746f2063757272656e74206f776e6560008201527f7200000000000000000000000000000000000000000000000000000000000000602082015250565b600061300e602183612639565b915061301982612fb2565b604082019050919050565b6000602082019050818103600083015261303d81613001565b9050919050565b7f4552433732313a20617070726f76652063616c6c6572206973206e6f7420746f60008201527f6b656e206f776e6572206f7220617070726f76656420666f7220616c6c000000602082015250565b60006130a0603d83612639565b91506130ab82613044565b604082019050919050565b600060208201905081810360008301526130cf81613093565b9050919050565b7f4e487b7100000000000000000000000000000000000000000000000000000000600052601160045260246000fd5b6000613110826126e9565b915061311b836126e9565b92508282101561312e5761312d6130d6565b5b828203905092915050565b6000613144826126e9565b91507fffffffffffffffffffffffffffffffffffffffffffffffffffffffffffffffff821415613177576131766130d6565b5b600182019050919050565b7f4552433732313a2063616c6c6572206973206e6f7420746f6b656e206f776e6560008201527f72206f7220617070726f76656400000000000000000000000000000000000000602082015250565b60006131de602d83612639565b91506131e982613182565b604082019050919050565b6000602082019050818103600083015261320d816131d1565b9050919050565b7f4e6f7420746865206f776e657200000000000000000000000000000000000000600082015250565b600061324a600d83612639565b915061325582613214565b602082019050919050565b600060208201905081810360008301526132798161323d565b9050919050565b600081905092915050565b50565b600061329b600083613280565b91506132a68261328b565b600082019050919050565b60006132bc8261328e565b9150819050919050565b7f4552433732313a20696e76616c696420746f6b656e2049440000000000000000600082015250565b60006132fc601883612639565b9150613307826132c6565b602082019050919050565b6000602082019050818103600083015261332b816132ef565b9050919050565b7f4552433732313a2061646472657373207a65726f206973206e6f74206120766160008201527f6c6964206f776e65720000000000000000000000000000000000000000000000602082015250565b600061338e602983612639565b915061339982613332565b604082019050919050565b600060208201905081810360008301526133bd81613381565b9050919050565b7f416d6f756e74206d7573742062652067726561746572207468616e2030000000600082015250565b60006133fa601d83612639565b9150613405826133c4565b602082019050919050565b60006020820190508181036000830152613429816133ed565b9050919050565b600081905092915050565b60006134468261262e565b6134508185613430565b935061346081856020860161264a565b80840191505092915050565b6000613478828561343b565b9150613484828461343b565b91508190509392505050565b7f4552433732313a207472616e736665722066726f6d20696e636f72726563742060008201527f6f776e6572000000000000000000000000000000000000000000000000000000602082015250565b60006134ec602583612639565b91506134f782613490565b604082019050919050565b6000602082019050818103600083015261351b816134df565b9050919050565b7f4552433732313a207472616e7366657220746f20746865207a65726f2061646460008201527f7265737300000000000000000000000000000000000000000000000000000000602082015250565b600061357e602483612639565b915061358982613522565b604082019050919050565b600060208201905081810360008301526135ad81613571565b9050919050565b7f4552433732313a20617070726f766520746f2063616c6c657200000000000000600082015250565b60006135ea601983612639565b91506135f5826135b4565b602082019050919050565b60006020820190508181036000830152613619816135dd565b9050919050565b7f4552433732313a207472616e7366657220746f206e6f6e20455243373231526560008201527f63656976657220696d706c656d656e7465720000000000000000000000000000602082015250565b600061367c603283612639565b915061368782613620565b604082019050919050565b600060208201905081810360008301526136ab8161366f565b9050919050565b7f4e487b7100000000000000000000000000000000000000000000000000000000600052601260045260246000fd5b600081519050919050565b600082825260208201905092915050565b6000613708826136e1565b61371281856136ec565b935061372281856020860161264a565b61372b8161267d565b840191505092915050565b600060808201905061374b600083018761277e565b613758602083018661277e565b61376560408301856128f4565b818103606083015261377781846136fd565b905095945050505050565b6000815190506137918161259f565b92915050565b6000602082840312156137ad576137ac612569565b5b60006137bb84828501613782565b91505092915050565b7f4552433732313a206d696e7420746f20746865207a65726f2061646472657373600082015250565b60006137fa602083612639565b9150613805826137c4565b602082019050919050565b60006020820190508181036000830152613829816137ed565b9050919050565b7f4552433732313a20746f6b656e20616c7265616479206d696e74656400000000600082015250565b6000613866601c83612639565b915061387182613830565b602082019050919050565b6000602082019050818103600083015261389581613859565b905091905056fea26469706673582212204a37ed5ef0ae2512b4b87f3c672c393c8eb18462a8a1cf031bbbfae1bc98061564736f6c63430008090033",
  "immutableReferences": {},
  "source": "// SPDX-License-Identifier: UNLICENSED\npragma solidity ^0.8.9;\n\nimport \"@openzeppelin/contracts/token/ERC721/ERC721.sol\";\n\ncontract TokenMaster is ERC721 {\n    address public owner;\n    uint256 public totalOccasions;\n    uint256 public totalSupply;\n\n    struct Occasion {\n        uint256 id;\n        string name;\n        uint256 cost;\n        uint256 tickets;\n        uint256 maxTickets;\n        string date;\n        string time;\n        string location;\n    }\n\n    mapping(uint256 => Occasion) occasions;\n    mapping(uint256 => mapping(address => bool)) public hasBought;\n    mapping(uint256 => mapping(uint256 => address)) public seatTaken;\n    mapping(uint256 => uint256[]) seatsTaken;\n    mapping(address => uint) public ticketsPurchased;\n    event TransactionSent(address indexed sender, uint256 amount);\n\n\n    modifier onlyOwner() {\n        require(msg.sender == owner, \"Not the owner\");\n        _;\n    }\n\n    constructor(\n        string memory _name,\n        string memory _symbol\n    ) ERC721(_name, _symbol) {\n        owner = msg.sender;\n        \n        \n    }\n\n    function list(\n        string memory _name,\n        uint256 _cost,\n        uint256 _maxTickets,\n        string memory _date,\n        string memory _time,\n        string memory _location\n    ) public onlyOwner {\n        totalOccasions++;\n        occasions[totalOccasions] = Occasion(\n            totalOccasions,\n            _name,\n            _cost,\n            _maxTickets,\n            _maxTickets,\n            _date,\n            _time,\n            _location\n        );\n    }\n\n    function mint(uint256 _id, uint256 _seat) public payable {\n\n        require(_id != 0);\n        require(_id <= totalOccasions);\n\n\n        require(msg.value >= occasions[_id].cost);\n\n\n        require(seatTaken[_id][_seat] == address(0));\n        require(_seat <= occasions[_id].maxTickets);\n\n        occasions[_id].tickets -= 1;\n\n        hasBought[_id][msg.sender] = true; \n        seatTaken[_id][_seat] = msg.sender; \n\n        seatsTaken[_id].push(_seat); \n\n        totalSupply++;\n\n        _safeMint(msg.sender, totalSupply);\n    }\n\n    function getOccasion(uint256 _id) public view returns (Occasion memory) {\n        return occasions[_id];\n    }\n\n    function getSeatsTaken(uint256 _id) public view returns (uint256[] memory) {\n        return seatsTaken[_id];\n    }\n    function sendTransaction() external payable {\n        require(msg.value > 0, \"Amount must be greater than 0\");\n        emit TransactionSent(msg.sender, msg.value);\n    }\n    \n    function withdraw() public onlyOwner {\n        (bool success, ) = owner.call{value: address(this).balance}(\"\");\n        require(success);\n    }\n    function sayHello() external pure returns (string memory) {\n        return \"Hello world!!\";\n    }\n}",
  "sourcePath": "/home/sanah/Desktop/token_master/contracts/TokerMaster.sol",
  "compiler": {
    "name": "solc",
    "version": "0.8.9+commit.e5eed63a.Emscripten.clang"
  },
  "schemaVersion": "3.4.16",
  "updatedAt": "2023-12-27T05:06:14.918Z",
  "networkType": "ethereum",
  "devdoc": {
    "kind": "dev",
    "methods": {
      "approve(address,uint256)": {
        "details": "See {IERC721-approve}."
      },
      "balanceOf(address)": {
        "details": "See {IERC721-balanceOf}."
      },
      "getApproved(uint256)": {
        "details": "See {IERC721-getApproved}."
      },
      "isApprovedForAll(address,address)": {
        "details": "See {IERC721-isApprovedForAll}."
      },
      "name()": {
        "details": "See {IERC721Metadata-name}."
      },
      "ownerOf(uint256)": {
        "details": "See {IERC721-ownerOf}."
      },
      "safeTransferFrom(address,address,uint256)": {
        "details": "See {IERC721-safeTransferFrom}."
      },
      "safeTransferFrom(address,address,uint256,bytes)": {
        "details": "See {IERC721-safeTransferFrom}."
      },
      "setApprovalForAll(address,bool)": {
        "details": "See {IERC721-setApprovalForAll}."
      },
      "supportsInterface(bytes4)": {
        "details": "See {IERC165-supportsInterface}."
      },
      "symbol()": {
        "details": "See {IERC721Metadata-symbol}."
      },
      "tokenURI(uint256)": {
        "details": "See {IERC721Metadata-tokenURI}."
      },
      "transferFrom(address,address,uint256)": {
        "details": "See {IERC721-transferFrom}."
      }
    },
    "version": 1
  },
  "userdoc": {
    "kind": "user",
    "methods": {},
    "version": 1
  }
}