{
  "contractName": "TokenMaster",
  "abi": [
    {
      "inputs": [
        {
          "internalType": "string",
          "name": "_name",
          "type": "string"
        },
        {
          "internalType": "string",
          "name": "_symbol",
          "type": "string"
        }
      ],
      "stateMutability": "nonpayable",
      "type": "constructor"
    },
    {
      "anonymous": false,
      "inputs": [
        {
          "indexed": true,
          "internalType": "address",
          "name": "owner",
          "type": "address"
        },
        {
          "indexed": true,
          "internalType": "address",
          "name": "approved",
          "type": "address"
        },
        {
          "indexed": true,
          "internalType": "uint256",
          "name": "tokenId",
          "type": "uint256"
        }
      ],
      "name": "Approval",
      "type": "event"
    },
    {
      "anonymous": false,
      "inputs": [
        {
          "indexed": true,
          "internalType": "address",
          "name": "owner",
          "type": "address"
        },
        {
          "indexed": true,
          "internalType": "address",
          "name": "operator",
          "type": "address"
        },
        {
          "indexed": false,
          "internalType": "bool",
          "name": "approved",
          "type": "bool"
        }
      ],
      "name": "ApprovalForAll",
      "type": "event"
    },
    {
      "anonymous": false,
      "inputs": [
        {
          "indexed": false,
          "internalType": "uint256",
          "name": "occasionId",
          "type": "uint256"
        },
        {
          "indexed": false,
          "internalType": "uint256",
          "name": "seatNumber",
          "type": "uint256"
        },
        {
          "indexed": false,
          "internalType": "address",
          "name": "buyer",
          "type": "address"
        }
      ],
      "name": "LogSeatTaken",
      "type": "event"
    },
    {
      "anonymous": false,
      "inputs": [
        {
          "indexed": false,
          "internalType": "uint256",
          "name": "occasionId",
          "type": "uint256"
        },
        {
          "indexed": false,
          "internalType": "uint256",
          "name": "seatNumber",
          "type": "uint256"
        },
        {
          "indexed": false,
          "internalType": "uint256",
          "name": "ticketCost",
          "type": "uint256"
        },
        {
          "indexed": false,
          "internalType": "address",
          "name": "buyer",
          "type": "address"
        }
      ],
      "name": "TicketPurchased",
      "type": "event"
    },
    {
      "anonymous": false,
      "inputs": [
        {
          "indexed": false,
          "internalType": "uint256",
          "name": "occasionId",
          "type": "uint256"
        },
        {
          "indexed": false,
          "internalType": "uint256",
          "name": "seatNumber",
          "type": "uint256"
        },
        {
          "indexed": false,
          "internalType": "uint256",
          "name": "refundAmount",
          "type": "uint256"
        },
        {
          "indexed": false,
          "internalType": "address",
          "name": "buyer",
          "type": "address"
        }
      ],
      "name": "TicketRefunded",
      "type": "event"
    },
    {
      "anonymous": false,
      "inputs": [
        {
          "indexed": true,
          "internalType": "address",
          "name": "sender",
          "type": "address"
        },
        {
          "indexed": false,
          "internalType": "uint256",
          "name": "amount",
          "type": "uint256"
        }
      ],
      "name": "TransactionSent",
      "type": "event"
    },
    {
      "anonymous": false,
      "inputs": [
        {
          "indexed": true,
          "internalType": "address",
          "name": "from",
          "type": "address"
        },
        {
          "indexed": true,
          "internalType": "address",
          "name": "to",
          "type": "address"
        },
        {
          "indexed": true,
          "internalType": "uint256",
          "name": "tokenId",
          "type": "uint256"
        }
      ],
      "name": "Transfer",
      "type": "event"
    },
    {
      "inputs": [
        {
          "internalType": "address",
          "name": "to",
          "type": "address"
        },
        {
          "internalType": "uint256",
          "name": "tokenId",
          "type": "uint256"
        }
      ],
      "name": "approve",
      "outputs": [],
      "stateMutability": "nonpayable",
      "type": "function"
    },
    {
      "inputs": [
        {
          "internalType": "address",
          "name": "owner",
          "type": "address"
        }
      ],
      "name": "balanceOf",
      "outputs": [
        {
          "internalType": "uint256",
          "name": "",
          "type": "uint256"
        }
      ],
      "stateMutability": "view",
      "type": "function",
      "constant": true
    },
    {
      "inputs": [
        {
          "internalType": "uint256",
          "name": "tokenId",
          "type": "uint256"
        }
      ],
      "name": "getApproved",
      "outputs": [
        {
          "internalType": "address",
          "name": "",
          "type": "address"
        }
      ],
      "stateMutability": "view",
      "type": "function",
      "constant": true
    },
    {
      "inputs": [
        {
          "internalType": "uint256",
          "name": "",
          "type": "uint256"
        },
        {
          "internalType": "address",
          "name": "",
          "type": "address"
        }
      ],
      "name": "hasBought",
      "outputs": [
        {
          "internalType": "bool",
          "name": "",
          "type": "bool"
        }
      ],
      "stateMutability": "view",
      "type": "function",
      "constant": true
    },
    {
      "inputs": [
        {
          "internalType": "address",
          "name": "owner",
          "type": "address"
        },
        {
          "internalType": "address",
          "name": "operator",
          "type": "address"
        }
      ],
      "name": "isApprovedForAll",
      "outputs": [
        {
          "internalType": "bool",
          "name": "",
          "type": "bool"
        }
      ],
      "stateMutability": "view",
      "type": "function",
      "constant": true
    },
    {
      "inputs": [],
      "name": "name",
      "outputs": [
        {
          "internalType": "string",
          "name": "",
          "type": "string"
        }
      ],
      "stateMutability": "view",
      "type": "function",
      "constant": true
    },
    {
      "inputs": [],
      "name": "owner",
      "outputs": [
        {
          "internalType": "address",
          "name": "",
          "type": "address"
        }
      ],
      "stateMutability": "view",
      "type": "function",
      "constant": true
    },
    {
      "inputs": [
        {
          "internalType": "uint256",
          "name": "tokenId",
          "type": "uint256"
        }
      ],
      "name": "ownerOf",
      "outputs": [
        {
          "internalType": "address",
          "name": "",
          "type": "address"
        }
      ],
      "stateMutability": "view",
      "type": "function",
      "constant": true
    },
    {
      "inputs": [
        {
          "internalType": "address",
          "name": "from",
          "type": "address"
        },
        {
          "internalType": "address",
          "name": "to",
          "type": "address"
        },
        {
          "internalType": "uint256",
          "name": "tokenId",
          "type": "uint256"
        }
      ],
      "name": "safeTransferFrom",
      "outputs": [],
      "stateMutability": "nonpayable",
      "type": "function"
    },
    {
      "inputs": [
        {
          "internalType": "address",
          "name": "from",
          "type": "address"
        },
        {
          "internalType": "address",
          "name": "to",
          "type": "address"
        },
        {
          "internalType": "uint256",
          "name": "tokenId",
          "type": "uint256"
        },
        {
          "internalType": "bytes",
          "name": "data",
          "type": "bytes"
        }
      ],
      "name": "safeTransferFrom",
      "outputs": [],
      "stateMutability": "nonpayable",
      "type": "function"
    },
    {
      "inputs": [
        {
          "internalType": "uint256",
          "name": "",
          "type": "uint256"
        },
        {
          "internalType": "uint256",
          "name": "",
          "type": "uint256"
        }
      ],
      "name": "seatTaken",
      "outputs": [
        {
          "internalType": "address",
          "name": "",
          "type": "address"
        }
      ],
      "stateMutability": "view",
      "type": "function",
      "constant": true
    },
    {
      "inputs": [
        {
          "internalType": "address",
          "name": "operator",
          "type": "address"
        },
        {
          "internalType": "bool",
          "name": "approved",
          "type": "bool"
        }
      ],
      "name": "setApprovalForAll",
      "outputs": [],
      "stateMutability": "nonpayable",
      "type": "function"
    },
    {
      "inputs": [
        {
          "internalType": "bytes4",
          "name": "interfaceId",
          "type": "bytes4"
        }
      ],
      "name": "supportsInterface",
      "outputs": [
        {
          "internalType": "bool",
          "name": "",
          "type": "bool"
        }
      ],
      "stateMutability": "view",
      "type": "function",
      "constant": true
    },
    {
      "inputs": [],
      "name": "symbol",
      "outputs": [
        {
          "internalType": "string",
          "name": "",
          "type": "string"
        }
      ],
      "stateMutability": "view",
      "type": "function",
      "constant": true
    },
    {
      "inputs": [
        {
          "internalType": "address",
          "name": "",
          "type": "address"
        }
      ],
      "name": "ticketsPurchased",
      "outputs": [
        {
          "internalType": "uint256",
          "name": "",
          "type": "uint256"
        }
      ],
      "stateMutability": "view",
      "type": "function",
      "constant": true
    },
    {
      "inputs": [
        {
          "internalType": "uint256",
          "name": "tokenId",
          "type": "uint256"
        }
      ],
      "name": "tokenURI",
      "outputs": [
        {
          "internalType": "string",
          "name": "",
          "type": "string"
        }
      ],
      "stateMutability": "view",
      "type": "function",
      "constant": true
    },
    {
      "inputs": [],
      "name": "totalOccasions",
      "outputs": [
        {
          "internalType": "uint256",
          "name": "",
          "type": "uint256"
        }
      ],
      "stateMutability": "view",
      "type": "function",
      "constant": true
    },
    {
      "inputs": [],
      "name": "totalSupply",
      "outputs": [
        {
          "internalType": "uint256",
          "name": "",
          "type": "uint256"
        }
      ],
      "stateMutability": "view",
      "type": "function",
      "constant": true
    },
    {
      "inputs": [
        {
          "internalType": "address",
          "name": "from",
          "type": "address"
        },
        {
          "internalType": "address",
          "name": "to",
          "type": "address"
        },
        {
          "internalType": "uint256",
          "name": "tokenId",
          "type": "uint256"
        }
      ],
      "name": "transferFrom",
      "outputs": [],
      "stateMutability": "nonpayable",
      "type": "function"
    },
    {
      "inputs": [
        {
          "internalType": "string",
          "name": "_name",
          "type": "string"
        },
        {
          "internalType": "uint256",
          "name": "_cost",
          "type": "uint256"
        },
        {
          "internalType": "uint256",
          "name": "_maxTickets",
          "type": "uint256"
        },
        {
          "internalType": "string",
          "name": "_date",
          "type": "string"
        },
        {
          "internalType": "string",
          "name": "_time",
          "type": "string"
        },
        {
          "internalType": "string",
          "name": "_location",
          "type": "string"
        }
      ],
      "name": "list",
      "outputs": [],
      "stateMutability": "nonpayable",
      "type": "function"
    },
    {
      "inputs": [
        {
          "internalType": "uint256",
          "name": "_id",
          "type": "uint256"
        },
        {
          "internalType": "uint256",
          "name": "_seat",
          "type": "uint256"
        }
      ],
      "name": "bookTicket",
      "outputs": [],
      "stateMutability": "payable",
      "type": "function",
      "payable": true
    },
    {
      "inputs": [
        {
          "internalType": "uint256",
          "name": "_occasionId",
          "type": "uint256"
        },
        {
          "internalType": "uint256",
          "name": "_seatNumber",
          "type": "uint256"
        }
      ],
      "name": "refundTicket",
      "outputs": [],
      "stateMutability": "nonpayable",
      "type": "function"
    },
    {
      "inputs": [
        {
          "internalType": "uint256",
          "name": "_occasionId",
          "type": "uint256"
        },
        {
          "internalType": "uint256",
          "name": "_seatNumber",
          "type": "uint256"
        }
      ],
      "name": "getSeatInfo",
      "outputs": [
        {
          "internalType": "uint256",
          "name": "cost",
          "type": "uint256"
        },
        {
          "internalType": "address",
          "name": "buyer",
          "type": "address"
        }
      ],
      "stateMutability": "view",
      "type": "function",
      "constant": true
    },
    {
      "inputs": [
        {
          "internalType": "uint256",
          "name": "_id",
          "type": "uint256"
        }
      ],
      "name": "getOccasion",
      "outputs": [
        {
          "components": [
            {
              "internalType": "uint256",
              "name": "id",
              "type": "uint256"
            },
            {
              "internalType": "string",
              "name": "name",
              "type": "string"
            },
            {
              "internalType": "uint256",
              "name": "cost",
              "type": "uint256"
            },
            {
              "internalType": "uint256",
              "name": "tickets",
              "type": "uint256"
            },
            {
              "internalType": "uint256",
              "name": "maxTickets",
              "type": "uint256"
            },
            {
              "internalType": "string",
              "name": "date",
              "type": "string"
            },
            {
              "internalType": "string",
              "name": "time",
              "type": "string"
            },
            {
              "internalType": "string",
              "name": "location",
              "type": "string"
            },
            {
              "internalType": "uint256",
              "name": "seatsBooked",
              "type": "uint256"
            },
            {
              "internalType": "address[]",
              "name": "ownershipHistory",
              "type": "address[]"
            }
          ],
          "internalType": "struct TokenMaster.Occasion",
          "name": "",
          "type": "tuple"
        }
      ],
      "stateMutability": "view",
      "type": "function",
      "constant": true
    },
    {
      "inputs": [
        {
          "internalType": "uint256",
          "name": "_id",
          "type": "uint256"
        }
      ],
      "name": "getSeatsTaken",
      "outputs": [
        {
          "internalType": "uint256[]",
          "name": "",
          "type": "uint256[]"
        }
      ],
      "stateMutability": "view",
      "type": "function",
      "constant": true
    },
    {
      "inputs": [],
      "name": "sendTransaction",
      "outputs": [],
      "stateMutability": "payable",
      "type": "function",
      "payable": true
    },
    {
      "inputs": [],
      "name": "withdraw",
      "outputs": [],
      "stateMutability": "nonpayable",
      "type": "function"
    },
    {
      "inputs": [],
      "name": "sayHello",
      "outputs": [
        {
          "internalType": "string",
          "name": "",
          "type": "string"
        }
      ],
      "stateMutability": "pure",
      "type": "function",
      "constant": true
    }
  ],
  "bytecode": "0x60806040523480156200001157600080fd5b5060405162004cfd38038062004cfd833981810160405281019062000037919062000303565b8181816000908051906020019062000051929190620000b6565b5080600190805190602001906200006a929190620000b6565b50505033600660006101000a81548173ffffffffffffffffffffffffffffffffffffffff021916908373ffffffffffffffffffffffffffffffffffffffff1602179055505050620003ed565b828054620000c490620003b7565b90600052602060002090601f016020900481019282620000e8576000855562000134565b82601f106200010357805160ff191683800117855562000134565b8280016001018555821562000134579182015b828111156200013357825182559160200191906001019062000116565b5b50905062000143919062000147565b5090565b5b808211156200016257600081600090555060010162000148565b5090565b6000604051905090565b600080fd5b600080fd5b600080fd5b600080fd5b6000601f19601f8301169050919050565b7f4e487b7100000000000000000000000000000000000000000000000000000000600052604160045260246000fd5b620001cf8262000184565b810181811067ffffffffffffffff82111715620001f157620001f062000195565b5b80604052505050565b60006200020662000166565b9050620002148282620001c4565b919050565b600067ffffffffffffffff82111562000237576200023662000195565b5b620002428262000184565b9050602081019050919050565b60005b838110156200026f57808201518184015260208101905062000252565b838111156200027f576000848401525b50505050565b60006200029c620002968462000219565b620001fa565b905082815260208101848484011115620002bb57620002ba6200017f565b5b620002c88482856200024f565b509392505050565b600082601f830112620002e857620002e76200017a565b5b8151620002fa84826020860162000285565b91505092915050565b600080604083850312156200031d576200031c62000170565b5b600083015167ffffffffffffffff8111156200033e576200033d62000175565b5b6200034c85828601620002d0565b925050602083015167ffffffffffffffff81111562000370576200036f62000175565b5b6200037e85828601620002d0565b9150509250929050565b7f4e487b7100000000000000000000000000000000000000000000000000000000600052602260045260246000fd5b60006002820490506001821680620003d057607f821691505b60208210811415620003e757620003e662000388565b5b50919050565b61490080620003fd6000396000f3fe6080604052600436106101b75760003560e01c806386ec3700116100ec578063a22cb4651161008a578063b88d4fde11610064578063b88d4fde14610629578063c87b56dd14610652578063e985e9c51461068f578063ef5fb05b146106cc576101b7565b8063a22cb465146105b9578063a47a2e06146105e2578063af296da1146105ec576101b7565b8063953865c1116100c6578063953865c1146104fd57806395d89b41146105285780639a382f0f146105535780639cb04aef1461057c576101b7565b806386ec3700146104785780638da5cb5b1461049457806390321b3b146104bf576101b7565b80633ccfd60b116101595780636af9affd116101335780636af9affd146103985780636ccda0a6146103c157806370a08231146103fe57806374bc86561461043b576101b7565b80633ccfd60b1461031b57806342842e0e146103325780636352211e1461035b576101b7565b8063095ea7b311610195578063095ea7b3146102615780630ef7ec741461028a57806318160ddd146102c757806323b872dd146102f2576101b7565b806301ffc9a7146101bc57806306fdde03146101f9578063081812fc14610224575b600080fd5b3480156101c857600080fd5b506101e360048036038101906101de9190613089565b6106f7565b6040516101f091906130d1565b60405180910390f35b34801561020557600080fd5b5061020e6107d9565b60405161021b9190613185565b60405180910390f35b34801561023057600080fd5b5061024b600480360381019061024691906131dd565b61086b565b604051610258919061324b565b60405180910390f35b34801561026d57600080fd5b5061028860048036038101906102839190613292565b6108b1565b005b34801561029657600080fd5b506102b160048036038101906102ac91906131dd565b6109c9565b6040516102be9190613390565b60405180910390f35b3480156102d357600080fd5b506102dc610a34565b6040516102e991906133c1565b60405180910390f35b3480156102fe57600080fd5b50610319600480360381019061031491906133dc565b610a3a565b005b34801561032757600080fd5b50610330610a9a565b005b34801561033e57600080fd5b50610359600480360381019061035491906133dc565b610bc5565b005b34801561036757600080fd5b50610382600480360381019061037d91906131dd565b610be5565b60405161038f919061324b565b60405180910390f35b3480156103a457600080fd5b506103bf60048036038101906103ba919061342f565b610c6c565b005b3480156103cd57600080fd5b506103e860048036038101906103e3919061346f565b61111f565b6040516103f591906133c1565b60405180910390f35b34801561040a57600080fd5b506104256004803603810190610420919061346f565b611137565b60405161043291906133c1565b60405180910390f35b34801561044757600080fd5b50610462600480360381019061045d91906131dd565b6111ef565b60405161046f919061369a565b60405180910390f35b610492600480360381019061048d919061342f565b611525565b005b3480156104a057600080fd5b506104a96119ee565b6040516104b6919061324b565b60405180910390f35b3480156104cb57600080fd5b506104e660048036038101906104e1919061342f565b611a14565b6040516104f49291906136bc565b60405180910390f35b34801561050957600080fd5b50610512611b93565b60405161051f91906133c1565b60405180910390f35b34801561053457600080fd5b5061053d611b99565b60405161054a9190613185565b60405180910390f35b34801561055f57600080fd5b5061057a6004803603810190610575919061381a565b611c2b565b005b34801561058857600080fd5b506105a3600480360381019061059e9190613917565b611e4a565b6040516105b091906130d1565b60405180910390f35b3480156105c557600080fd5b506105e060048036038101906105db9190613983565b611e79565b005b6105ea611e8f565b005b3480156105f857600080fd5b50610613600480360381019061060e919061342f565b611f22565b604051610620919061324b565b60405180910390f35b34801561063557600080fd5b50610650600480360381019061064b9190613a64565b611f64565b005b34801561065e57600080fd5b50610679600480360381019061067491906131dd565b611fc6565b6040516106869190613185565b60405180910390f35b34801561069b57600080fd5b506106b660048036038101906106b19190613ae7565b61202e565b6040516106c391906130d1565b60405180910390f35b3480156106d857600080fd5b506106e16120c2565b6040516106ee9190613185565b60405180910390f35b60007f80ac58cd000000000000000000000000000000000000000000000000000000007bffffffffffffffffffffffffffffffffffffffffffffffffffffffff1916827bffffffffffffffffffffffffffffffffffffffffffffffffffffffff191614806107c257507f5b5e139f000000000000000000000000000000000000000000000000000000007bffffffffffffffffffffffffffffffffffffffffffffffffffffffff1916827bffffffffffffffffffffffffffffffffffffffffffffffffffffffff1916145b806107d257506107d1826120ff565b5b9050919050565b6060600080546107e890613b56565b80601f016020809104026020016040519081016040528092919081815260200182805461081490613b56565b80156108615780601f1061083657610100808354040283529160200191610861565b820191906000526020600020905b81548152906001019060200180831161084457829003601f168201915b5050505050905090565b600061087682612169565b6004600083815260200190815260200160002060009054906101000a900473ffffffffffffffffffffffffffffffffffffffff169050919050565b60006108bc82610be5565b90508073ffffffffffffffffffffffffffffffffffffffff168373ffffffffffffffffffffffffffffffffffffffff16141561092d576040517f08c379a000000000000000000000000000000000000000000000000000000000815260040161092490613bfa565b60405180910390fd5b8073ffffffffffffffffffffffffffffffffffffffff1661094c6121b4565b73ffffffffffffffffffffffffffffffffffffffff16148061097b575061097a816109756121b4565b61202e565b5b6109ba576040517f08c379a00000000000000000000000000000000000000000000000000000000081526004016109b190613c8c565b60405180910390fd5b6109c483836121bc565b505050565b6060600c6000838152602001908152602001600020805480602002602001604051908101604052809291908181526020018280548015610a2857602002820191906000526020600020905b815481526020019060010190808311610a14575b50505050509050919050565b60085481565b610a4b610a456121b4565b82612275565b610a8a576040517f08c379a0000000000000000000000000000000000000000000000000000000008152600401610a8190613d1e565b60405180910390fd5b610a9583838361230a565b505050565b600660009054906101000a900473ffffffffffffffffffffffffffffffffffffffff1673ffffffffffffffffffffffffffffffffffffffff163373ffffffffffffffffffffffffffffffffffffffff1614610b2a576040517f08c379a0000000000000000000000000000000000000000000000000000000008152600401610b2190613d8a565b60405180910390fd5b6000600660009054906101000a900473ffffffffffffffffffffffffffffffffffffffff1673ffffffffffffffffffffffffffffffffffffffff1647604051610b7290613ddb565b60006040518083038185875af1925050503d8060008114610baf576040519150601f19603f3d011682016040523d82523d6000602084013e610bb4565b606091505b5050905080610bc257600080fd5b50565b610be083838360405180602001604052806000815250611f64565b505050565b600080610bf183612604565b9050600073ffffffffffffffffffffffffffffffffffffffff168173ffffffffffffffffffffffffffffffffffffffff161415610c63576040517f08c379a0000000000000000000000000000000000000000000000000000000008152600401610c5a90613e3c565b60405180910390fd5b80915050919050565b600660009054906101000a900473ffffffffffffffffffffffffffffffffffffffff1673ffffffffffffffffffffffffffffffffffffffff163373ffffffffffffffffffffffffffffffffffffffff1614610cfc576040517f08c379a0000000000000000000000000000000000000000000000000000000008152600401610cf390613d8a565b60405180910390fd5b6000600960008481526020019081526020016000209050600081600001541415610d5b576040517f08c379a0000000000000000000000000000000000000000000000000000000008152600401610d5290613ea8565b60405180910390fd5b600082118015610d6f575080600401548211155b610dae576040517f08c379a0000000000000000000000000000000000000000000000000000000008152600401610da590613f14565b60405180910390fd5b6000600b600083600001548152602001908152602001600020600084815260200190815260200160002060009054906101000a900473ffffffffffffffffffffffffffffffffffffffff169050600073ffffffffffffffffffffffffffffffffffffffff168173ffffffffffffffffffffffffffffffffffffffff161415610e6b576040517f08c379a0000000000000000000000000000000000000000000000000000000008152600401610e6290613f80565b60405180910390fd5b600a60008360000154815260200190815260200160002060008273ffffffffffffffffffffffffffffffffffffffff1673ffffffffffffffffffffffffffffffffffffffff16815260200190815260200160002060009054906101000a900460ff16610f0c576040517f08c379a0000000000000000000000000000000000000000000000000000000008152600401610f0390613fec565b60405180910390fd5b60008260020154905060008273ffffffffffffffffffffffffffffffffffffffff1682604051610f3b90613ddb565b60006040518083038185875af1925050503d8060008114610f78576040519150601f19603f3d011682016040523d82523d6000602084013e610f7d565b606091505b5050905080610fc1576040517f08c379a0000000000000000000000000000000000000000000000000000000008152600401610fb890614058565b60405180910390fd5b610fd96001856003015461264190919063ffffffff16565b8460030181905550610ff96001856008015461264190919063ffffffff16565b84600801819055506000600b600086600001548152602001908152602001600020600087815260200190815260200160002060006101000a81548173ffffffffffffffffffffffffffffffffffffffff021916908373ffffffffffffffffffffffffffffffffffffffff1602179055506000600a60008660000154815260200190815260200160002060008573ffffffffffffffffffffffffffffffffffffffff1673ffffffffffffffffffffffffffffffffffffffff16815260200190815260200160002060006101000a81548160ff0219169083151502179055507f87ff245f55dca5f20f12247f39f781d5710eda96984e49512daad7b675e41479846000015486848660405161110f9493929190614078565b60405180910390a1505050505050565b600d6020528060005260406000206000915090505481565b60008073ffffffffffffffffffffffffffffffffffffffff168273ffffffffffffffffffffffffffffffffffffffff1614156111a8576040517f08c379a000000000000000000000000000000000000000000000000000000000815260040161119f9061412f565b60405180910390fd5b600360008373ffffffffffffffffffffffffffffffffffffffff1673ffffffffffffffffffffffffffffffffffffffff168152602001908152602001600020549050919050565b6111f7612e9d565b60096000838152602001908152602001600020604051806101400160405290816000820154815260200160018201805461123090613b56565b80601f016020809104026020016040519081016040528092919081815260200182805461125c90613b56565b80156112a95780601f1061127e576101008083540402835291602001916112a9565b820191906000526020600020905b81548152906001019060200180831161128c57829003601f168201915b505050505081526020016002820154815260200160038201548152602001600482015481526020016005820180546112e090613b56565b80601f016020809104026020016040519081016040528092919081815260200182805461130c90613b56565b80156113595780601f1061132e57610100808354040283529160200191611359565b820191906000526020600020905b81548152906001019060200180831161133c57829003601f168201915b5050505050815260200160068201805461137290613b56565b80601f016020809104026020016040519081016040528092919081815260200182805461139e90613b56565b80156113eb5780601f106113c0576101008083540402835291602001916113eb565b820191906000526020600020905b8154815290600101906020018083116113ce57829003601f168201915b5050505050815260200160078201805461140490613b56565b80601f016020809104026020016040519081016040528092919081815260200182805461143090613b56565b801561147d5780601f106114525761010080835404028352916020019161147d565b820191906000526020600020905b81548152906001019060200180831161146057829003601f168201915b50505050508152602001600882015481526020016009820180548060200260200160405190810160405280929190818152602001828054801561151557602002820191906000526020600020905b8160009054906101000a900473ffffffffffffffffffffffffffffffffffffffff1673ffffffffffffffffffffffffffffffffffffffff16815260200190600101908083116114cb575b5050505050815250509050919050565b6000600960008481526020019081526020016000209050600081600001541415611584576040517f08c379a000000000000000000000000000000000000000000000000000000000815260040161157b90613ea8565b60405180910390fd5b600082118015611598575080600401548211155b6115d7576040517f08c379a00000000000000000000000000000000000000000000000000000000081526004016115ce90613f14565b60405180910390fd5b600073ffffffffffffffffffffffffffffffffffffffff16600b600083600001548152602001908152602001600020600084815260200190815260200160002060009054906101000a900473ffffffffffffffffffffffffffffffffffffffff1673ffffffffffffffffffffffffffffffffffffffff161461168e576040517f08c379a0000000000000000000000000000000000000000000000000000000008152600401611685906141c1565b60405180910390fd5b80600401548160080154106116d8576040517f08c379a00000000000000000000000000000000000000000000000000000000081526004016116cf9061422d565b60405180910390fd5b60008160020154905080341015611724576040517f08c379a000000000000000000000000000000000000000000000000000000000815260040161171b90614299565b60405180910390fd5b61173c6001836003015461265790919063ffffffff16565b826003018190555061175c6001836008015461265790919063ffffffff16565b826008018190555033600b600084600001548152602001908152602001600020600085815260200190815260200160002060006101000a81548173ffffffffffffffffffffffffffffffffffffffff021916908373ffffffffffffffffffffffffffffffffffffffff1602179055506001600a60008460000154815260200190815260200160002060003373ffffffffffffffffffffffffffffffffffffffff1673ffffffffffffffffffffffffffffffffffffffff16815260200190815260200160002060006101000a81548160ff021916908315150217905550600c600083600001548152602001908152602001600020839080600181540180825580915050600190039060005260206000200160009091909190915055600660009054906101000a900473ffffffffffffffffffffffffffffffffffffffff1673ffffffffffffffffffffffffffffffffffffffff166108fc829081150290604051600060405180830381858888f193505050501580156118de573d6000803e3d6000fd5b50600860008154809291906118f2906142e8565b91905055506119033360085461266d565b81600901339080600181540180825580915050600190039060005260206000200160009091909190916101000a81548173ffffffffffffffffffffffffffffffffffffffff021916908373ffffffffffffffffffffffffffffffffffffffff1602179055507fa10bc58cea23ff081ed09c4a4b3d07aefa83053c0992b0fef315a4a79a6c32ea8260000154843360405161199f93929190614331565b60405180910390a17ff4810f4af7d42912f869f8efa162c4287b2dbce7d45c8777141a2c01d68bc0af82600001548483336040516119e09493929190614078565b60405180910390a150505050565b600660009054906101000a900473ffffffffffffffffffffffffffffffffffffffff1681565b6000806000600960008681526020019081526020016000209050600081600001541415611a76576040517f08c379a0000000000000000000000000000000000000000000000000000000008152600401611a6d90613ea8565b60405180910390fd5b600084118015611a8a575080600401548411155b611ac9576040517f08c379a0000000000000000000000000000000000000000000000000000000008152600401611ac090613f14565b60405180910390fd5b80600201549250600b600082600001548152602001908152602001600020600085815260200190815260200160002060009054906101000a900473ffffffffffffffffffffffffffffffffffffffff169150600073ffffffffffffffffffffffffffffffffffffffff168273ffffffffffffffffffffffffffffffffffffffff161415611b8b576040517f08c379a0000000000000000000000000000000000000000000000000000000008152600401611b8290613f80565b60405180910390fd5b509250929050565b60075481565b606060018054611ba890613b56565b80601f0160208091040260200160405190810160405280929190818152602001828054611bd490613b56565b8015611c215780601f10611bf657610100808354040283529160200191611c21565b820191906000526020600020905b815481529060010190602001808311611c0457829003601f168201915b5050505050905090565b600660009054906101000a900473ffffffffffffffffffffffffffffffffffffffff1673ffffffffffffffffffffffffffffffffffffffff163373ffffffffffffffffffffffffffffffffffffffff1614611cbb576040517f08c379a0000000000000000000000000000000000000000000000000000000008152600401611cb290613d8a565b60405180910390fd5b60076000815480929190611cce906142e8565b9190505550604051806101400160405280600754815260200187815260200186815260200185815260200185815260200184815260200183815260200182815260200160008152602001600067ffffffffffffffff811115611d3357611d326136ef565b5b604051908082528060200260200182016040528015611d615781602001602082028036833780820191505090505b50815250600960006007548152602001908152602001600020600082015181600001556020820151816001019080519060200190611da0929190612ef0565b5060408201518160020155606082015181600301556080820151816004015560a0820151816005019080519060200190611ddb929190612ef0565b5060c0820151816006019080519060200190611df8929190612ef0565b5060e0820151816007019080519060200190611e15929190612ef0565b506101008201518160080155610120820151816009019080519060200190611e3e929190612f76565b50905050505050505050565b600a6020528160005260406000206020528060005260406000206000915091509054906101000a900460ff1681565b611e8b611e846121b4565b838361288b565b5050565b60003411611ed2576040517f08c379a0000000000000000000000000000000000000000000000000000000008152600401611ec9906143b4565b60405180910390fd5b3373ffffffffffffffffffffffffffffffffffffffff167f4970bf8595442008a41b189fc026906b953e2a419e3029e6d0d6ce02a33ba85d34604051611f1891906133c1565b60405180910390a2565b600b6020528160005260406000206020528060005260406000206000915091509054906101000a900473ffffffffffffffffffffffffffffffffffffffff1681565b611f75611f6f6121b4565b83612275565b611fb4576040517f08c379a0000000000000000000000000000000000000000000000000000000008152600401611fab90613d1e565b60405180910390fd5b611fc0848484846129f8565b50505050565b6060611fd182612169565b6000611fdb612a54565b90506000815111611ffb5760405180602001604052806000815250612026565b8061200584612a6b565b604051602001612016929190614410565b6040516020818303038152906040525b915050919050565b6000600560008473ffffffffffffffffffffffffffffffffffffffff1673ffffffffffffffffffffffffffffffffffffffff16815260200190815260200160002060008373ffffffffffffffffffffffffffffffffffffffff1673ffffffffffffffffffffffffffffffffffffffff16815260200190815260200160002060009054906101000a900460ff16905092915050565b60606040518060400160405280600d81526020017f48656c6c6f20776f726c64212100000000000000000000000000000000000000815250905090565b60007f01ffc9a7000000000000000000000000000000000000000000000000000000007bffffffffffffffffffffffffffffffffffffffffffffffffffffffff1916827bffffffffffffffffffffffffffffffffffffffffffffffffffffffff1916149050919050565b61217281612b43565b6121b1576040517f08c379a00000000000000000000000000000000000000000000000000000000081526004016121a890613e3c565b60405180910390fd5b50565b600033905090565b816004600083815260200190815260200160002060006101000a81548173ffffffffffffffffffffffffffffffffffffffff021916908373ffffffffffffffffffffffffffffffffffffffff160217905550808273ffffffffffffffffffffffffffffffffffffffff1661222f83610be5565b73ffffffffffffffffffffffffffffffffffffffff167f8c5be1e5ebec7d5bd14f71427d1e84f3dd0314c0f7b2291e5b200ac8c7c3b92560405160405180910390a45050565b60008061228183610be5565b90508073ffffffffffffffffffffffffffffffffffffffff168473ffffffffffffffffffffffffffffffffffffffff1614806122c357506122c2818561202e565b5b8061230157508373ffffffffffffffffffffffffffffffffffffffff166122e98461086b565b73ffffffffffffffffffffffffffffffffffffffff16145b91505092915050565b8273ffffffffffffffffffffffffffffffffffffffff1661232a82610be5565b73ffffffffffffffffffffffffffffffffffffffff1614612380576040517f08c379a0000000000000000000000000000000000000000000000000000000008152600401612377906144a6565b60405180910390fd5b600073ffffffffffffffffffffffffffffffffffffffff168273ffffffffffffffffffffffffffffffffffffffff1614156123f0576040517f08c379a00000000000000000000000000000000000000000000000000000000081526004016123e790614538565b60405180910390fd5b6123fd8383836001612b84565b8273ffffffffffffffffffffffffffffffffffffffff1661241d82610be5565b73ffffffffffffffffffffffffffffffffffffffff1614612473576040517f08c379a000000000000000000000000000000000000000000000000000000000815260040161246a906144a6565b60405180910390fd5b6004600082815260200190815260200160002060006101000a81549073ffffffffffffffffffffffffffffffffffffffff02191690556001600360008573ffffffffffffffffffffffffffffffffffffffff1673ffffffffffffffffffffffffffffffffffffffff168152602001908152602001600020600082825403925050819055506001600360008473ffffffffffffffffffffffffffffffffffffffff1673ffffffffffffffffffffffffffffffffffffffff16815260200190815260200160002060008282540192505081905550816002600083815260200190815260200160002060006101000a81548173ffffffffffffffffffffffffffffffffffffffff021916908373ffffffffffffffffffffffffffffffffffffffff160217905550808273ffffffffffffffffffffffffffffffffffffffff168473ffffffffffffffffffffffffffffffffffffffff167fddf252ad1be2c89b69c2b068fc378daa952ba7f163c4a11628f55a4df523b3ef60405160405180910390a46125ff8383836001612b8a565b505050565b60006002600083815260200190815260200160002060009054906101000a900473ffffffffffffffffffffffffffffffffffffffff169050919050565b6000818361264f9190614558565b905092915050565b60008183612665919061458c565b905092915050565b600073ffffffffffffffffffffffffffffffffffffffff168273ffffffffffffffffffffffffffffffffffffffff1614156126dd576040517f08c379a00000000000000000000000000000000000000000000000000000000081526004016126d49061462e565b60405180910390fd5b6126e681612b43565b15612726576040517f08c379a000000000000000000000000000000000000000000000000000000000815260040161271d9061469a565b60405180910390fd5b612734600083836001612b84565b61273d81612b43565b1561277d576040517f08c379a00000000000000000000000000000000000000000000000000000000081526004016127749061469a565b60405180910390fd5b6001600360008473ffffffffffffffffffffffffffffffffffffffff1673ffffffffffffffffffffffffffffffffffffffff16815260200190815260200160002060008282540192505081905550816002600083815260200190815260200160002060006101000a81548173ffffffffffffffffffffffffffffffffffffffff021916908373ffffffffffffffffffffffffffffffffffffffff160217905550808273ffffffffffffffffffffffffffffffffffffffff16600073ffffffffffffffffffffffffffffffffffffffff167fddf252ad1be2c89b69c2b068fc378daa952ba7f163c4a11628f55a4df523b3ef60405160405180910390a4612887600083836001612b8a565b5050565b8173ffffffffffffffffffffffffffffffffffffffff168373ffffffffffffffffffffffffffffffffffffffff1614156128fa576040517f08c379a00000000000000000000000000000000000000000000000000000000081526004016128f190614706565b60405180910390fd5b80600560008573ffffffffffffffffffffffffffffffffffffffff1673ffffffffffffffffffffffffffffffffffffffff16815260200190815260200160002060008473ffffffffffffffffffffffffffffffffffffffff1673ffffffffffffffffffffffffffffffffffffffff16815260200190815260200160002060006101000a81548160ff0219169083151502179055508173ffffffffffffffffffffffffffffffffffffffff168373ffffffffffffffffffffffffffffffffffffffff167f17307eab39ab6107e8899845ad3d59bd9653f200f220920489ca2b5937696c31836040516129eb91906130d1565b60405180910390a3505050565b612a0384848461230a565b612a0f84848484612b90565b612a4e576040517f08c379a0000000000000000000000000000000000000000000000000000000008152600401612a4590614798565b60405180910390fd5b50505050565b606060405180602001604052806000815250905090565b606060006001612a7a84612d27565b01905060008167ffffffffffffffff811115612a9957612a986136ef565b5b6040519080825280601f01601f191660200182016040528015612acb5781602001600182028036833780820191505090505b509050600082602001820190505b600115612b38578080600190039150507f3031323334353637383961626364656600000000000000000000000000000000600a86061a8153600a8581612b2257612b216147b8565b5b0494506000851415612b3357612b38565b612ad9565b819350505050919050565b60008073ffffffffffffffffffffffffffffffffffffffff16612b6583612604565b73ffffffffffffffffffffffffffffffffffffffff1614159050919050565b50505050565b50505050565b6000612bb18473ffffffffffffffffffffffffffffffffffffffff16612e7a565b15612d1a578373ffffffffffffffffffffffffffffffffffffffff1663150b7a02612bda6121b4565b8786866040518563ffffffff1660e01b8152600401612bfc949392919061483c565b602060405180830381600087803b158015612c1657600080fd5b505af1925050508015612c4757506040513d601f19601f82011682018060405250810190612c44919061489d565b60015b612cca573d8060008114612c77576040519150601f19603f3d011682016040523d82523d6000602084013e612c7c565b606091505b50600081511415612cc2576040517f08c379a0000000000000000000000000000000000000000000000000000000008152600401612cb990614798565b60405180910390fd5b805181602001fd5b63150b7a0260e01b7bffffffffffffffffffffffffffffffffffffffffffffffffffffffff1916817bffffffffffffffffffffffffffffffffffffffffffffffffffffffff191614915050612d1f565b600190505b949350505050565b600080600090507a184f03e93ff9f4daa797ed6e38ed64bf6a1f0100000000000000008310612d85577a184f03e93ff9f4daa797ed6e38ed64bf6a1f0100000000000000008381612d7b57612d7a6147b8565b5b0492506040810190505b6d04ee2d6d415b85acef81000000008310612dc2576d04ee2d6d415b85acef81000000008381612db857612db76147b8565b5b0492506020810190505b662386f26fc100008310612df157662386f26fc100008381612de757612de66147b8565b5b0492506010810190505b6305f5e1008310612e1a576305f5e1008381612e1057612e0f6147b8565b5b0492506008810190505b6127108310612e3f576127108381612e3557612e346147b8565b5b0492506004810190505b60648310612e625760648381612e5857612e576147b8565b5b0492506002810190505b600a8310612e71576001810190505b80915050919050565b6000808273ffffffffffffffffffffffffffffffffffffffff163b119050919050565b604051806101400160405280600081526020016060815260200160008152602001600081526020016000815260200160608152602001606081526020016060815260200160008152602001606081525090565b828054612efc90613b56565b90600052602060002090601f016020900481019282612f1e5760008555612f65565b82601f10612f3757805160ff1916838001178555612f65565b82800160010185558215612f65579182015b82811115612f64578251825591602001919060010190612f49565b5b509050612f729190613000565b5090565b828054828255906000526020600020908101928215612fef579160200282015b82811115612fee5782518260006101000a81548173ffffffffffffffffffffffffffffffffffffffff021916908373ffffffffffffffffffffffffffffffffffffffff16021790555091602001919060010190612f96565b5b509050612ffc9190613000565b5090565b5b80821115613019576000816000905550600101613001565b5090565b6000604051905090565b600080fd5b600080fd5b60007fffffffff0000000000000000000000000000000000000000000000000000000082169050919050565b61306681613031565b811461307157600080fd5b50565b6000813590506130838161305d565b92915050565b60006020828403121561309f5761309e613027565b5b60006130ad84828501613074565b91505092915050565b60008115159050919050565b6130cb816130b6565b82525050565b60006020820190506130e660008301846130c2565b92915050565b600081519050919050565b600082825260208201905092915050565b60005b8381101561312657808201518184015260208101905061310b565b83811115613135576000848401525b50505050565b6000601f19601f8301169050919050565b6000613157826130ec565b61316181856130f7565b9350613171818560208601613108565b61317a8161313b565b840191505092915050565b6000602082019050818103600083015261319f818461314c565b905092915050565b6000819050919050565b6131ba816131a7565b81146131c557600080fd5b50565b6000813590506131d7816131b1565b92915050565b6000602082840312156131f3576131f2613027565b5b6000613201848285016131c8565b91505092915050565b600073ffffffffffffffffffffffffffffffffffffffff82169050919050565b60006132358261320a565b9050919050565b6132458161322a565b82525050565b6000602082019050613260600083018461323c565b92915050565b61326f8161322a565b811461327a57600080fd5b50565b60008135905061328c81613266565b92915050565b600080604083850312156132a9576132a8613027565b5b60006132b78582860161327d565b92505060206132c8858286016131c8565b9150509250929050565b600081519050919050565b600082825260208201905092915050565b6000819050602082019050919050565b613307816131a7565b82525050565b600061331983836132fe565b60208301905092915050565b6000602082019050919050565b600061333d826132d2565b61334781856132dd565b9350613352836132ee565b8060005b8381101561338357815161336a888261330d565b975061337583613325565b925050600181019050613356565b5085935050505092915050565b600060208201905081810360008301526133aa8184613332565b905092915050565b6133bb816131a7565b82525050565b60006020820190506133d660008301846133b2565b92915050565b6000806000606084860312156133f5576133f4613027565b5b60006134038682870161327d565b93505060206134148682870161327d565b9250506040613425868287016131c8565b9150509250925092565b6000806040838503121561344657613445613027565b5b6000613454858286016131c8565b9250506020613465858286016131c8565b9150509250929050565b60006020828403121561348557613484613027565b5b60006134938482850161327d565b91505092915050565b600082825260208201905092915050565b60006134b8826130ec565b6134c2818561349c565b93506134d2818560208601613108565b6134db8161313b565b840191505092915050565b600081519050919050565b600082825260208201905092915050565b6000819050602082019050919050565b61351b8161322a565b82525050565b600061352d8383613512565b60208301905092915050565b6000602082019050919050565b6000613551826134e6565b61355b81856134f1565b935061356683613502565b8060005b8381101561359757815161357e8882613521565b975061358983613539565b92505060018101905061356a565b5085935050505092915050565b6000610140830160008301516135bd60008601826132fe565b50602083015184820360208601526135d582826134ad565b91505060408301516135ea60408601826132fe565b5060608301516135fd60608601826132fe565b50608083015161361060808601826132fe565b5060a083015184820360a086015261362882826134ad565b91505060c083015184820360c086015261364282826134ad565b91505060e083015184820360e086015261365c82826134ad565b9150506101008301516136736101008601826132fe565b5061012083015184820361012086015261368d8282613546565b9150508091505092915050565b600060208201905081810360008301526136b481846135a4565b905092915050565b60006040820190506136d160008301856133b2565b6136de602083018461323c565b9392505050565b600080fd5b600080fd5b7f4e487b7100000000000000000000000000000000000000000000000000000000600052604160045260246000fd5b6137278261313b565b810181811067ffffffffffffffff82111715613746576137456136ef565b5b80604052505050565b600061375961301d565b9050613765828261371e565b919050565b600067ffffffffffffffff821115613785576137846136ef565b5b61378e8261313b565b9050602081019050919050565b82818337600083830152505050565b60006137bd6137b88461376a565b61374f565b9050828152602081018484840111156137d9576137d86136ea565b5b6137e484828561379b565b509392505050565b600082601f830112613801576138006136e5565b5b81356138118482602086016137aa565b91505092915050565b60008060008060008060c0878903121561383757613836613027565b5b600087013567ffffffffffffffff8111156138555761385461302c565b5b61386189828a016137ec565b965050602061387289828a016131c8565b955050604061388389828a016131c8565b945050606087013567ffffffffffffffff8111156138a4576138a361302c565b5b6138b089828a016137ec565b935050608087013567ffffffffffffffff8111156138d1576138d061302c565b5b6138dd89828a016137ec565b92505060a087013567ffffffffffffffff8111156138fe576138fd61302c565b5b61390a89828a016137ec565b9150509295509295509295565b6000806040838503121561392e5761392d613027565b5b600061393c858286016131c8565b925050602061394d8582860161327d565b9150509250929050565b613960816130b6565b811461396b57600080fd5b50565b60008135905061397d81613957565b92915050565b6000806040838503121561399a57613999613027565b5b60006139a88582860161327d565b92505060206139b98582860161396e565b9150509250929050565b600067ffffffffffffffff8211156139de576139dd6136ef565b5b6139e78261313b565b9050602081019050919050565b6000613a07613a02846139c3565b61374f565b905082815260208101848484011115613a2357613a226136ea565b5b613a2e84828561379b565b509392505050565b600082601f830112613a4b57613a4a6136e5565b5b8135613a5b8482602086016139f4565b91505092915050565b60008060008060808587031215613a7e57613a7d613027565b5b6000613a8c8782880161327d565b9450506020613a9d8782880161327d565b9350506040613aae878288016131c8565b925050606085013567ffffffffffffffff811115613acf57613ace61302c565b5b613adb87828801613a36565b91505092959194509250565b60008060408385031215613afe57613afd613027565b5b6000613b0c8582860161327d565b9250506020613b1d8582860161327d565b9150509250929050565b7f4e487b7100000000000000000000000000000000000000000000000000000000600052602260045260246000fd5b60006002820490506001821680613b6e57607f821691505b60208210811415613b8257613b81613b27565b5b50919050565b7f4552433732313a20617070726f76616c20746f2063757272656e74206f776e6560008201527f7200000000000000000000000000000000000000000000000000000000000000602082015250565b6000613be46021836130f7565b9150613bef82613b88565b604082019050919050565b60006020820190508181036000830152613c1381613bd7565b9050919050565b7f4552433732313a20617070726f76652063616c6c6572206973206e6f7420746f60008201527f6b656e206f776e6572206f7220617070726f76656420666f7220616c6c000000602082015250565b6000613c76603d836130f7565b9150613c8182613c1a565b604082019050919050565b60006020820190508181036000830152613ca581613c69565b9050919050565b7f4552433732313a2063616c6c6572206973206e6f7420746f6b656e206f776e6560008201527f72206f7220617070726f76656400000000000000000000000000000000000000602082015250565b6000613d08602d836130f7565b9150613d1382613cac565b604082019050919050565b60006020820190508181036000830152613d3781613cfb565b9050919050565b7f4e6f7420746865206f776e657200000000000000000000000000000000000000600082015250565b6000613d74600d836130f7565b9150613d7f82613d3e565b602082019050919050565b60006020820190508181036000830152613da381613d67565b9050919050565b600081905092915050565b50565b6000613dc5600083613daa565b9150613dd082613db5565b600082019050919050565b6000613de682613db8565b9150819050919050565b7f4552433732313a20696e76616c696420746f6b656e2049440000000000000000600082015250565b6000613e266018836130f7565b9150613e3182613df0565b602082019050919050565b60006020820190508181036000830152613e5581613e19565b9050919050565b7f496e76616c6964206f63636173696f6e20494400000000000000000000000000600082015250565b6000613e926013836130f7565b9150613e9d82613e5c565b602082019050919050565b60006020820190508181036000830152613ec181613e85565b9050919050565b7f496e76616c69642073656174206e756d62657200000000000000000000000000600082015250565b6000613efe6013836130f7565b9150613f0982613ec8565b602082019050919050565b60006020820190508181036000830152613f2d81613ef1565b9050919050565b7f53656174206973206e6f742074616b656e000000000000000000000000000000600082015250565b6000613f6a6011836130f7565b9150613f7582613f34565b602082019050919050565b60006020820190508181036000830152613f9981613f5d565b9050919050565b7f427579657220686173206e6f7420626f756768742061207469636b6574000000600082015250565b6000613fd6601d836130f7565b9150613fe182613fa0565b602082019050919050565b6000602082019050818103600083015261400581613fc9565b9050919050565b7f526566756e64206661696c656400000000000000000000000000000000000000600082015250565b6000614042600d836130f7565b915061404d8261400c565b602082019050919050565b6000602082019050818103600083015261407181614035565b9050919050565b600060808201905061408d60008301876133b2565b61409a60208301866133b2565b6140a760408301856133b2565b6140b4606083018461323c565b95945050505050565b7f4552433732313a2061646472657373207a65726f206973206e6f74206120766160008201527f6c6964206f776e65720000000000000000000000000000000000000000000000602082015250565b60006141196029836130f7565b9150614124826140bd565b604082019050919050565b600060208201905081810360008301526141488161410c565b9050919050565b7f5365617420697320616c72656164792074616b656e206174207468697320616460008201527f6472657373000000000000000000000000000000000000000000000000000000602082015250565b60006141ab6025836130f7565b91506141b68261414f565b604082019050919050565b600060208201905081810360008301526141da8161419e565b9050919050565b7f416c6c2073656174732061726520626f6f6b6564000000000000000000000000600082015250565b60006142176014836130f7565b9150614222826141e1565b602082019050919050565b600060208201905081810360008301526142468161420a565b9050919050565b7f496e73756666696369656e742066756e64730000000000000000000000000000600082015250565b60006142836012836130f7565b915061428e8261424d565b602082019050919050565b600060208201905081810360008301526142b281614276565b9050919050565b7f4e487b7100000000000000000000000000000000000000000000000000000000600052601160045260246000fd5b60006142f3826131a7565b91507fffffffffffffffffffffffffffffffffffffffffffffffffffffffffffffffff821415614326576143256142b9565b5b600182019050919050565b600060608201905061434660008301866133b2565b61435360208301856133b2565b614360604083018461323c565b949350505050565b7f416d6f756e74206d7573742062652067726561746572207468616e2030000000600082015250565b600061439e601d836130f7565b91506143a982614368565b602082019050919050565b600060208201905081810360008301526143cd81614391565b9050919050565b600081905092915050565b60006143ea826130ec565b6143f481856143d4565b9350614404818560208601613108565b80840191505092915050565b600061441c82856143df565b915061442882846143df565b91508190509392505050565b7f4552433732313a207472616e736665722066726f6d20696e636f72726563742060008201527f6f776e6572000000000000000000000000000000000000000000000000000000602082015250565b60006144906025836130f7565b915061449b82614434565b604082019050919050565b600060208201905081810360008301526144bf81614483565b9050919050565b7f4552433732313a207472616e7366657220746f20746865207a65726f2061646460008201527f7265737300000000000000000000000000000000000000000000000000000000602082015250565b60006145226024836130f7565b915061452d826144c6565b604082019050919050565b6000602082019050818103600083015261455181614515565b9050919050565b6000614563826131a7565b915061456e836131a7565b925082821015614581576145806142b9565b5b828203905092915050565b6000614597826131a7565b91506145a2836131a7565b9250827fffffffffffffffffffffffffffffffffffffffffffffffffffffffffffffffff038211156145d7576145d66142b9565b5b828201905092915050565b7f4552433732313a206d696e7420746f20746865207a65726f2061646472657373600082015250565b60006146186020836130f7565b9150614623826145e2565b602082019050919050565b600060208201905081810360008301526146478161460b565b9050919050565b7f4552433732313a20746f6b656e20616c7265616479206d696e74656400000000600082015250565b6000614684601c836130f7565b915061468f8261464e565b602082019050919050565b600060208201905081810360008301526146b381614677565b9050919050565b7f4552433732313a20617070726f766520746f2063616c6c657200000000000000600082015250565b60006146f06019836130f7565b91506146fb826146ba565b602082019050919050565b6000602082019050818103600083015261471f816146e3565b9050919050565b7f4552433732313a207472616e7366657220746f206e6f6e20455243373231526560008201527f63656976657220696d706c656d656e7465720000000000000000000000000000602082015250565b60006147826032836130f7565b915061478d82614726565b604082019050919050565b600060208201905081810360008301526147b181614775565b9050919050565b7f4e487b7100000000000000000000000000000000000000000000000000000000600052601260045260246000fd5b600081519050919050565b600082825260208201905092915050565b600061480e826147e7565b61481881856147f2565b9350614828818560208601613108565b6148318161313b565b840191505092915050565b6000608082019050614851600083018761323c565b61485e602083018661323c565b61486b60408301856133b2565b818103606083015261487d8184614803565b905095945050505050565b6000815190506148978161305d565b92915050565b6000602082840312156148b3576148b2613027565b5b60006148c184828501614888565b9150509291505056fea26469706673582212203d98b25cf1d7a9c419f6b80db919c34fb4589965d4ceb30875b7f69b5d7c160f64736f6c63430008090033",
  "immutableReferences": {},
  "source": "// SPDX-License-Identifier: UNLICENSED\npragma solidity ^0.8.9;\n\nimport \"@openzeppelin/contracts/token/ERC721/ERC721.sol\";\nimport \"@openzeppelin/contracts/utils/math/SafeMath.sol\";\n\ncontract TokenMaster is ERC721 {\n    address public owner;\n    uint256 public totalOccasions;\n    uint256 public totalSupply;\n    using SafeMath for uint256;\n\n    struct Occasion {\n        uint256 id;\n        string name;\n        uint256 cost;\n        uint256 tickets;\n        uint256 maxTickets;\n        string date;\n        string time;\n        string location;\n        uint256 seatsBooked;\n        address[] ownershipHistory;\n    }\n\n    mapping(uint256 => Occasion) occasions;\n    mapping(uint256 => mapping(address => bool)) public hasBought;\n    mapping(uint256 => mapping(uint256 => address)) public seatTaken;\n    mapping(uint256 => uint256[]) seatsTaken;\n    mapping(address => uint) public ticketsPurchased;\n    event TransactionSent(address indexed sender, uint256 amount);\n    event LogSeatTaken(uint256 occasionId, uint256 seatNumber, address buyer);\n\n    event TicketPurchased(\n        uint256 occasionId,\n        uint256 seatNumber,\n        uint256 ticketCost,\n        address buyer\n    );\n    event TicketRefunded(\n        uint256 occasionId,\n        uint256 seatNumber,\n        uint256 refundAmount,\n        address buyer\n    );\n\n    modifier onlyOwner() {\n        require(msg.sender == owner, \"Not the owner\");\n        _;\n    }\n\n    constructor(\n        string memory _name,\n        string memory _symbol\n    ) ERC721(_name, _symbol) {\n        owner = msg.sender;\n    }\n\n    function list(\n        string memory _name,\n        uint256 _cost,\n        uint256 _maxTickets,\n        string memory _date,\n        string memory _time,\n        string memory _location\n    ) public onlyOwner {\n        totalOccasions++;\n        occasions[totalOccasions] = Occasion(\n            totalOccasions,\n            _name,\n            _cost,\n            _maxTickets,\n            _maxTickets,\n            _date,\n            _time,\n            _location,\n            0,\n            new address[](0)\n        );\n    }\n\n    function bookTicket(uint256 _id, uint256 _seat) public payable {\n        Occasion storage occasion = occasions[_id];\n        // Check if the occasion exists\n        require(occasion.id != 0, \"Invalid occasion ID\");\n\n        // Check if the seat is available\n        require(\n            _seat > 0 && _seat <= occasion.maxTickets,\n            \"Invalid seat number\"\n        );\n\n        // Check if the seat is already taken\n        require(\n            seatTaken[occasion.id][_seat] == address(0),\n            \"Seat is already taken at this address\"\n        );\n        // Check if all seats are booked\n        require(\n            occasion.seatsBooked < occasion.maxTickets,\n            \"All seats are booked\"\n        );\n        // Check if the buyer sent enough Ether\n        uint256 ticketCost = occasion.cost;\n        require(msg.value >= ticketCost, \"Insufficient funds\");\n\n        // Update ticket count and deduct the cost\n        occasion.tickets = occasion.tickets.add(1);\n        occasion.seatsBooked = occasion.seatsBooked.add(1);\n        seatTaken[occasion.id][_seat] = msg.sender;\n        hasBought[occasion.id][msg.sender] = true;\n        seatsTaken[occasion.id].push(_seat);\n\n        // Transfer Ether to the owner\n        payable(owner).transfer(ticketCost);\n        totalSupply++;\n\n        // Mint ERC721 token to the buyer\n        _mint(msg.sender, totalSupply);\n\n        // Add the buyer to the ownership history\n        occasion.ownershipHistory.push(msg.sender);\n        emit LogSeatTaken(occasion.id, _seat, msg.sender);\n\n        // Emit a custom event for the ticket purchase\n        emit TicketPurchased(occasion.id, _seat, ticketCost, msg.sender);\n    }\n\n    function refundTicket(\n        uint256 _occasionId,\n        uint256 _seatNumber\n    ) external onlyOwner {\n        Occasion storage occasion = occasions[_occasionId];\n\n        // Check if the occasion exists\n        require(occasion.id != 0, \"Invalid occasion ID\");\n\n        // Check if the seat is within valid range\n        require(\n            _seatNumber > 0 && _seatNumber <= occasion.maxTickets,\n            \"Invalid seat number\"\n        );\n\n        // Check if the seat is taken by a buyer\n        address buyer = seatTaken[occasion.id][_seatNumber];\n        require(buyer != address(0), \"Seat is not taken\");\n\n        // Check if the buyer has actually bought the ticket\n        require(hasBought[occasion.id][buyer], \"Buyer has not bought a ticket\");\n\n        // Refund the cost of the ticket\n        uint256 refundAmount = occasion.cost;\n        (bool success, ) = payable(buyer).call{value: refundAmount}(\"\");\n        require(success, \"Refund failed\");\n\n        // Update state\n        occasion.tickets = occasion.tickets.sub(1);\n        occasion.seatsBooked = occasion.seatsBooked.sub(1);\n        seatTaken[occasion.id][_seatNumber] = address(0);\n        hasBought[occasion.id][buyer] = false;\n\n        // Emit an event for the refund\n        emit TicketRefunded(occasion.id, _seatNumber, refundAmount, buyer);\n    }\n\n    function getSeatInfo(\n        uint256 _occasionId,\n        uint256 _seatNumber\n    ) public view returns (uint256 cost, address buyer) {\n        Occasion storage occasion = occasions[_occasionId];\n\n        require(occasion.id != 0, \"Invalid occasion ID\");\n        require(\n            _seatNumber > 0 && _seatNumber <= occasion.maxTickets,\n            \"Invalid seat number\"\n        );\n\n        cost = occasion.cost;\n        buyer = seatTaken[occasion.id][_seatNumber];\n        // Ensure that buyer is not the zero address\n        require(buyer != address(0), \"Seat is not taken\");\n\n        return (cost, buyer);\n    }\n\n    function getOccasion(uint256 _id) public view returns (Occasion memory) {\n        return occasions[_id];\n    }\n\n    function getSeatsTaken(uint256 _id) public view returns (uint256[] memory) {\n        return seatsTaken[_id];\n    }\n\n    function sendTransaction() external payable {\n        require(msg.value > 0, \"Amount must be greater than 0\");\n        emit TransactionSent(msg.sender, msg.value);\n    }\n\n    function withdraw() public onlyOwner {\n        (bool success, ) = owner.call{value: address(this).balance}(\"\");\n        require(success);\n    }\n\n    function sayHello() external pure returns (string memory) {\n        return \"Hello world!!\";\n    }\n}\n",
  "sourcePath": "/home/sanah/Desktop/token_master/contracts/TokerMaster.sol",
  "compiler": {
    "name": "solc",
    "version": "0.8.9+commit.e5eed63a.Emscripten.clang"
  },
  "schemaVersion": "3.4.16",
  "updatedAt": "2023-12-29T05:59:10.026Z",
  "networkType": "ethereum",
  "devdoc": {
    "kind": "dev",
    "methods": {
      "approve(address,uint256)": {
        "details": "See {IERC721-approve}."
      },
      "balanceOf(address)": {
        "details": "See {IERC721-balanceOf}."
      },
      "getApproved(uint256)": {
        "details": "See {IERC721-getApproved}."
      },
      "isApprovedForAll(address,address)": {
        "details": "See {IERC721-isApprovedForAll}."
      },
      "name()": {
        "details": "See {IERC721Metadata-name}."
      },
      "ownerOf(uint256)": {
        "details": "See {IERC721-ownerOf}."
      },
      "safeTransferFrom(address,address,uint256)": {
        "details": "See {IERC721-safeTransferFrom}."
      },
      "safeTransferFrom(address,address,uint256,bytes)": {
        "details": "See {IERC721-safeTransferFrom}."
      },
      "setApprovalForAll(address,bool)": {
        "details": "See {IERC721-setApprovalForAll}."
      },
      "supportsInterface(bytes4)": {
        "details": "See {IERC165-supportsInterface}."
      },
      "symbol()": {
        "details": "See {IERC721Metadata-symbol}."
      },
      "tokenURI(uint256)": {
        "details": "See {IERC721Metadata-tokenURI}."
      },
      "transferFrom(address,address,uint256)": {
        "details": "See {IERC721-transferFrom}."
      }
    },
    "version": 1
  },
  "userdoc": {
    "kind": "user",
    "methods": {},
    "version": 1
  }
}